:020000040800F2
:100000006005002061210008F1110008F3110008CB
:10001000F7110008FB110008FF11000800000000A4
:1000200000000000000000000000000003120008B3
:10003000051200080000000007120008091200085D
:100040007B2100087B2100087B2100087B21000820
:100050007B2100087B2100087B2100087B21000810
:100060007B2100087B2100087B2100087B21000800
:100070007B2100087B2100087B2100087B210008F0
:100080007B2100087B2100087B2100087B210008E0
:100090007B2100087B2100087B2100087B210008D0
:1000A0007B2100087B2100087B2100087B210008C0
:1000B0007B2100087B2100087B2100087B210008B0
:1000C0007B2100087B2100087B2100087B210008A0
:1000D0007B2100087B2100087B2100087B21000890
:1000E0007B2100087B2100087B2100087B21000880
:1000F0007B2100087B2100087B2100087B21000870
:100100007B2100087B2100087B2100087B2100085F
:100110007B2100087B2100087B2100087B2100084F
:100120007B2100087B2100087B2100087B2100083F
:10013000DFF80CD003F034FE004800479B0A0008AB
:10014000600500200FB597B01D99084603F06DFAC1
:100150000A901C99084603F068FA08901A99084614
:1001600003F063FA0790089903F007FA09900A99D7
:1001700003F003FA0B9003F05CFCCDE90C0104F0F2
:1001800075FFCDE90E0103F07FFC169016991A98C1
:1001900003F081FA1A9016991C9803F07CFA1C90CF
:1001A00016991D9803F077FA1D90FE480168FE48E5
:1001B000006803F03AFA0E90FC480168FC480068B9
:1001C00003F033FA0D900E9903F029FA4FF08041B5
:1001D0000F9003F02AFA1590F4480168F14800687E
:1001E00003F023FA0E90F2480168EF48006803F02C
:1001F0001CFA0D900E9903F0C0F94FF080410F905A
:1002000003F013FA1490E9480168006803F00DFA4E
:100210000F90E4480168006803F007FA0D90E44885
:100220000168006803F001FA0B90DF48016800687C
:1002300003F0FBF90A900B9903F0F1F90C900D997A
:1002400003F0EDF90E900F9903F097F913901499BC
:100250001D9803F0EAF90F9013991C9803F0E5F943
:100260000E900F9903F0DBF9129013991A9803F08E
:10027000DCF90F9015991D9803F0D7F90E900F999E
:1002800003F0CDF9119015991C9803F0CEF90F9059
:1002900014991A9803F0C9F90E900F9903F0BFF959
:1002A0001090129803F0C5FBC24AC34BCDE9080178
:1002B00003F0D7FACDE90C01C048006803F0B9FBA0
:1002C000CDE90A01DDE90C2303F025FACDE90E01A1
:1002D00003F0DAFBB9490860119803F0AAFBB54AAC
:1002E000B54BCDE9080103F0BCFACDE90C01B448E7
:1002F000006803F09EFBCDE90A01DDE90C2303F061
:100300000AFACDE90E0103F0BFFBAD490860109871
:1003100003F08FFBA74AA84BCDE9080103F0A1FA2F
:10032000CDE90C01A748006803F083FBCDE90A0181
:10033000DDE90C2303F0EFF9CDE90E0103F0A4FB96
:10034000A04908609D48006803F073FBCDE90C01EB
:10035000129803F06EFB00229B4BCDE9040103F0E1
:1003600080FACDE90801179803F063FBCDE9060197
:10037000DDE9082303F0CFF9CDE90A01DDE90C231B
:1003800003F0C9F9CDE90E0103F07EFB17908C480C
:10039000006803F04EFBCDE90C01119803F049FB16
:1003A0000022894BCDE9040103F05BFACDE9080195
:1003B000189803F03EFBCDE90601DDE9082303F0C0
:1003C000AAF9CDE90A01DDE90C2303F0A4F9CDE98E
:1003D0000E0103F059FB18907A48006803F029FBDE
:1003E000CDE90C01109803F024FB0022764BCDE9F7
:1003F000040103F036FACDE90801199803F019FB5E
:10040000CDE90601DDE9082303F085F9CDE90A010C
:10041000DDE90C2303F07FF9CDE90E0103F034FB95
:10042000199062481999006803F0FFF806905D483A
:100430001899006803F0F9F804905D48006880F0AE
:1004400000400290179903F0F0F80390049903F02C
:10045000E6F80590069903F0E2F8079003F0E9FA50
:10046000544A5A4BCDE9080103F0FBF9CDE90C01E0
:100470004D48006803F0DDFACDE90A01DDE90C23FF
:1004800003F049F9CDE90E0103F0FEFA4649086090
:1004900046481899006803F0C8F806904148199931
:1004A000006803F0C2F804903F480168179803F011
:1004B000BCF80390049903F060F80590069903F0E6
:1004C000AEF8079003F0B5FA3A4A404BCDE908017F
:1004D00003F0C7F9CDE90C013548006803F0A9FA2B
:1004E000CDE90A01DDE90C2303F015F9CDE90E0190
:1004F00003F0CAFA2E4908602C480168179803F0E7
:1005000094F806902A481999006803F08EF8049030
:1005100025481899006803F088F80390049903F0BF
:100520007EF80590069903F028F8079003F081FA09
:10053000204A264BCDE9080103F093F9CDE90C01DF
:100540001848006803F075FACDE90A01DDE90C23CB
:1005500003F0E1F8CDE90E0103F096FA11490860C5
:1005600008460168179803F060F80690104818993B
:10057000006803F05AF804900B481999006803F0DA
:1005800054F80390049902F0F8FF0590069903F0DF
:1005900046F8079003F04DFA064A0C4BCDE90801E6
:1005A00016E0000028000020200000202C00002081
:1005B00024000020FCA9F1D24D62603F30000020F1
:1005C0003400002038000020000059404D62503FA8
:1005D00003F047F9CDE90C01FE48006803F029FA61
:1005E000CDE90A01DDE90C2303F095F8CDE90E0110
:1005F00003F04AFAF749086008460168006803F00A
:1006000014F80A90F4480168006803F00EF80890A6
:10061000F2480168006803F008F80690F0480168A5
:10062000006803F002F80590069902F0A6FF079013
:10063000089902F0A2FF09900A9902F09EFF0B9020
:1006400003F0F7F9CDE90C0104F010FDCDE90E013E
:1006500003F01AFA1690E2481699006803F01BF8A6
:10066000DF490860DD481699006803F014F8DB499B
:100670000860D9481699006803F00DF8D64908605B
:10068000D4481699006803F006F8D2490860D448A7
:1006900001684FF0804002F0C8FF0690CE48016824
:1006A000069802F0C2FF0890CC4801684FF0404025
:1006B00002F0BBFF0690C7480168069802F0B5FF3C
:1006C0000790089902F059FF099003F0B2F9CDE9BB
:1006D0000A0104F0B9F94FF06632C24BCDE90C01C2
:1006E00003F0BFF8CDE90E0103F0CEF9BE49086072
:1006F000B94801684FF0804002F097FF0390B64878
:100700000168039802F091FF0590B44801684FF02A
:10071000404002F08AFF0390B0480168039802F05D
:1007200084FF0490059902F07AFF4FF07E51069005
:1007300002F023FF079003F07CF9CDE90A01A848F5
:1007400001684FF0804002F070FF0490A3480168F8
:10075000049802F06AFF06909F4801684FF08040BD
:1007600002F063FF04909B480168049802F05DFF6B
:100770000590069902F001FF079003F05AF9CDE9C0
:100780000801DDE90A2304F0B1FB4FF06632954B16
:10079000CDE90C0103F065F8CDE90E0103F074F921
:1007A000924908608B480168006802F03EFF06909D
:1007B00089480168006802F038FF049087480168A2
:1007C000006802F032FF029085480168006802F07C
:1007D0002CFF0190029902F0D0FE0390049902F0E0
:1007E0001EFF0590069902F01AFF079003F021F909
:1007F000CDE90A01774801687948006802F015FFE1
:100800000590754801687548006802F00EFF049075
:10081000059902F0B2FE4FF08041069002F005FF0C
:10082000079003F006F9CDE90801DDE90A2304F099
:100830005DFB4FF066326B4BCDE90C0103F011F814
:10084000CDE90E0103F020F9694908601BB000BD35
:100850002DE9F84F4FF0000850E0664911F8080004
:1008600001F08FFA644921F81800644911F8080072
:1008700001F087FA624921F8180031F9180003F0F5
:10088000CFF8009003F0D5F8814600225D4B02F0CE
:10089000E8FF064600225C4B03F053F8044603F0E1
:1008A000F3F88346594850F82810584602F0B7FE2E
:1008B000574941F82800504931F9180003F0B0F8C1
:1008C000009003F0B6F806460022524B02F0C9FF32
:1008D000044600224C4B03F034F8814603F0D4F870
:1008E00083464D4850F82810584602F098FE4B4970
:1008F00041F8280008F1010000F0FF08B8F1030FEB
:10090000ABDBBDE8F88F2DE9F04F8DB04FF0000064
:100910000A900B900C9007900890099006460AE008
:100920004FF000000AA941F8260007A941F8260067
:1009300006F10100C6B2032EF2DB4FF000077CE0A7
:100940004FF0000674E02B49885D01F01AFA05A902
:1009500021F816002949885D01F013FA03A921F84E
:10096000160031F9160003F05BF8019003F061F80E
:1009700080460022234B02F074FF04460022224BE3
:1009800002F0DFFF824603F07FF8029007A850F8DC
:100990002610029802F0F1FD07A941F8260005A9EA
:1009A00031F9160003F03CF8019003F042F80446D8
:1009B0000022184B02F055FF80460022124B02F035
:1009C000C0FF824603F060F802900AA850F8261093
:1009D000029825E02C0000202800002024000020A0
:1009E0002000002066A64C40780000207C000020FB
:1009F00074000020440000208000002047000020F8
:100A00008600002000407F400000E04008010020F8
:100A10002001002000001040FC00002014010020F4
:100A200002F0ABFD0AA941F8260006F10100C6B2AA
:100A3000032E88DB07F10100C7B20A2F80DB4FF0DD
:100A40007E500C904FF0000622E00AA951F82600D3
:100A500002F0EFFF04460022FE4B02F072FF8046D8
:100A600003F012F8FC4941F8260007A951F82600C6
:100A700002F0DFFF04460022F64B02F062FF8046E0
:100A800003F002F8F54941F8260006F10100C6B26C
:100A9000032EDADB0DB0BDE8F08F1FB500F04EFE7F
:100AA0004FF4E13000F0B2FB00F0E9FE01F042F952
:100AB00000F0C2FC01F07CF96AE00221E84801F094
:100AC0005DFC002829D0E7A003F08CF94FF0000A64
:100AD00006E0C82000F06DFE0AF1010000F0FF0AF8
:100AE000BAF1640FF5DBE4A003F07CF9FFF70BFF2C
:100AF000E7A003F077F901F052FA4FF0000A06E0A0
:100B0000C82000F056FE0AF1010000F0FF0ABAF119
:100B1000640FF5DBE4A003F065F9E849E84800F06C
:100B2000B8FC00BF00BFFFF793FE01F0DDF9E54917
:100B30000860E5488068E4494968E34CCDE9001065
:100B40002368E24CA26861682068FFF7FBFADD4881
:100B50000068DF4908600846006802F06AFF044642
:100B60000D46DC48006802F064FF06460F46DA488E
:100B7000006802F05EFF804642460B46D7A0CDE9F2
:100B80000067CDE9024503F02DF9C82000F011FE01
:100B900093E72DE9F05F06460C46D34801682046EE
:100BA00002F043FD8346294602F0E7FC8046CF4829
:100BB00001684FF07E5002F032FD8246414602F05D
:100BC00034FD0746C9480168304602F02EFD8146D3
:100BD000394602F0D2FC05462846BDE8F09F2DE9D3
:100BE000F05FB94A9168506802F055FD834602F003
:100BF00020FF804603F028FF06464FF06632BC4BCC
:100C000002F02FFE044602F03FFF8246AF484168E3
:100C10005046FFF7BEFFAF490860BDE8F09F2DE9E1
:100C2000F05FA94A9168106802F035FD834602F032
:100C300000FF804603F008FF06464FF06632AC4BDB
:100C400002F00FFE044602F01FFF82469F48016833
:100C50005046FFF79EFFA0490860BDE8F09F2DE9D0
:100C6000F04706460C46A3480168204602F0D7FC30
:100C700081469D480168484602F0D7FC0746294650
:100C800002F07BFC05462946304602F0C8FC9A4932
:100C900008609A4841689A48006802F0C0FC07461C
:100CA00096488168384602F0BAFC96490860934835
:100CB000C06880F0004048609048C06880F0004004
:100CC000886091480068C86008688749096802F030
:100CD000ACFC074689480168384602F04EFC87495B
:100CE0000860884948688049096802F09EFC074608
:100CF00082484168384602F040FC8049486081499A
:100D000088687949096802F090FC07467B48816849
:100D1000384602F032FC794988607A49C8687249DD
:100D2000096802F082FC07467448C168384602F040
:100D300024FC7249C860084601687448006802F0E3
:100D400074FC734908606D4881687048006802F05F
:100D50006CFC704908606E4801686C48006802F0DD
:100D600064FC07466C480168384602F006FC6B4993
:100D70000860084601686648006802F08CFC684913
:100D80000860664801686348006802F084FC6549B1
:100D900008605F48006864490860584841685B48DB
:100DA000006802F042FC614908605F4801685C48E5
:100DB000006802F03AFC074650480168384602F0E5
:100DC00031FC4E490860594801685548006802F0F6
:100DD0002CFC074649484168384602F023FC474945
:100DE0004860514801684F48006802F01EFC074601
:100DF00042488168384602F015FC404988604B48FB
:100E000001684848006802F010FC07463B48C1688A
:100E1000384602F007FC3949C86037480168404845
:100E2000006802F002FC0746294602F0A6FB0546D0
:100E3000314801683B48006802F0F7FB07462D483F
:100E40000168384602F099FB2A49086008460168A3
:100E500020466DE000002440FC0000200801002036
:100E6000000801400D0A20BFAACABCD7BCB1B8A176
:100E7000A3A1A3A1A30D0A004D507536303530D083
:100E8000A3D7BC20BFAACABC202E2E2E2E0D0A002E
:100E90004D507536303530D0A3D7BC20CDEAB3C91C
:100EA000202E2E2E2E0D0A000D0ACAFDBEDDB2C95F
:100EB000BCAFBFAACABC0D0A000000009000002011
:100EC0008C0000209400002014010020200100204C
:100ED00074000020780000207C000020256620257A
:100EE000662025660A000000400000203C0000202B
:100EF00066A64C4050000020540000200000002056
:100F000010000020EC000020140000201C00002035
:100F1000580000205C000020180000206000002025
:100F200064000020680000206C0000207000002099
:100F300002F075FB80462846BDE8F0872DE9FF5F8B
:100F40009F4A9168506802F0A6FB009002F071FD84
:100F5000824603F0B9FE80464FF06632994B02F0AC
:100F600080FC06460022984B02F07BFC044602F00F
:100F70008BFD0390924A9168106802F08CFB009000
:100F800002F057FD064603F09FFE04464FF066321E
:100F90008C4B02F066FC804600228B4B02F061FC19
:100FA000824602F071FD0290854A5168106802F095
:100FB00072FB009002F03DFD064603F085FE82467E
:100FC0004FF066327F4B02F04CFC804600227E4B95
:100FD00002F047FC044602F057FD01907B4801688F
:100FE0000398FFF73CFE7A49086078484168029808
:100FF000FFF735FE77490860744881680198FFF76C
:101000002EFE75490860BDE8FF9F2DE9F04F8DB0B9
:101010000746884691469A46DDF858B06F480B90CF
:101020004FF000060B9802F004FDCDE90601002008
:101030004FF0804104F01AF800224FF08043CDE9D0
:10104000020102F07EFCCDE90401DDE9062302F095
:1010500008FC044600225C4B02F073FCCDE9080159
:1010600002F012FD0A900B9802F0E3FCCDE90201B8
:1010700000204FF0804103F0F9FF044600224FF0BA
:10108000804302F05EFCCDE90001DDE9022302F0BD
:10109000E8FB00224C4BCDE9040102F052FCCDE903
:1010A0000801484602F0C5FCCDE90601DDE9082348
:1010B00002F0D6FC53D23946384602F0B6FA4FF069
:1010C0007E51099002F0AEFA04464146404602F0D5
:1010D000ACFA4FF07E51099002F0A4FA0546214681
:1010E00002F09DFA06464FF00001304602F0E8FC9F
:1010F00001D286F00046304602F09BFC044603F025
:10110000B5FFCDE9060103F05DFBCDE9080102F072
:10111000BBFC0646304602F08CFC0446304A314B9C
:1011200002F00FFC0022304BCDE9060102F099FBE2
:10113000CDE9080102F0A8FC0646BAF1010F02D081
:10114000BBF1010F05D12949304602F016FA0646D7
:1011500031E03146254802F062FA06462BE0484667
:1011600002F067FCCDE9080103F06EFC044602F0D2
:101170008BFC0646304602F05CFC194A194BCDE95F
:10118000060102F0DEFB04460022174B02F069FB69
:10119000CDE9080102F078FC06461798012805D130
:1011A0001249304602F0E9F9064604E031460F489C
:1011B00002F035FA064630460DB0BDE8F08F00006B
:1011C0001401002066A64C400000244020010020AD
:1011D000780000207C000020740000200AE81C41F8
:1011E0006F1283C0CA210940008066400000B442EB
:1011F000704700BFFEE700BFFEE700BFFEE700BF8D
:10120000FEE77047704770477047000010B586B022
:1012100004464FF0010144F2040001F053FD4FF485
:101220000070ADF814004FF018008DF817004FF063
:1012300003008DF8160005A97D4801F003F84FF46E
:101240008060ADF814004FF004008DF8170005A978
:10125000774800F0F7FF01944FF00000ADF8080068
:10126000ADF80A00ADF80C00ADF810004FF00C001E
:10127000ADF80E0001A96F4801F0DDFD01216D48B8
:1012800001F083FE06B010BD70B504460D46E1B214
:10129000684801F0FDFE00BF6648008810F0800F2E
:1012A000FAD0204670BDF0B503460D4616464FF005
:1012B000000729460A2E03D0384608702846F0BD9C
:1012C00043B94FF0300001F8010B4FF000000870F7
:1012D0002846F4E7002B05DA4FF02D0001F8010B4A
:1012E000C3F1000342F210720FE093FBF2F404B971
:1012F0003FB104F1300001F8010B04FB12334FF051
:1013000001074FF00A0092FBF0F2002AEDDC4FF0EB
:10131000000008702846D2E70FB470B586B00646C4
:101320000CA801907BE00B9800785C281FD10B98EB
:10133000401C0B9000786E280AD0722811D10D2124
:10134000304601F0A5FE0B9800F101000B900DE076
:101350000A21304601F09CFE0B9800F101000B9031
:1013600004E00B9800F101000B9000BF50E00B98D7
:101370000078252845D10B98401C0B9000786428F4
:101380001AD0732837D1019810C801900CE0217849
:10139000304601F07DFE00BF4021304601F0EEFEF8
:1013A0000028F9D004F1010420780028EFD10B982F
:1013B00000F101000B9023E0019820C801900A225F
:1013C00002A92846FFF76FFF02AC0CE021783046F7
:1013D00001F05EFE00BF4021304601F0CFFE002844
:1013E000F9D004F1010420780028EFD10B9800F126
:1013F00001000B9004E00B9800F101000B9000BF7E
:1014000006E00B9810F8011B0B90304601F040FEEF
:1014100000BF4021304601F0B1FE0028F9D00B9802
:10142000007800287FF47FAF06B070BC5DF814FB35
:10143000000801400038014010B51E21EE2000F0E8
:101440005DFA0A2000F0B5F9A221EE2000F0E2FAE0
:10145000B3490880A421EE2000F0DCFAB1490880ED
:10146000A621EE2000F0D6FAAF490880A821EE2090
:1014700000F0D0FAAD490880AA21EE2000F0CAFAA7
:10148000AB490880AC21EE2000F0C4FAA9490880DD
:1014900010BD2DE9F34F9FB04821EE2000F02EFA49
:1014A000092000F086F90021EE2000F02BFB0790C8
:1014B0005821EE2000F0B8FB092000F07AF9002155
:1014C000EE2000F01FFB0690994909880698A0EBD2
:1014D00001294FEAE972974800884FF00003A9FB01
:1014E000001402FB004009FB03004FF01702CDE996
:1014F00010010846109902F02EF84FF4FA6110EB33
:101500000108884800884FF000014FF01002CDE933
:101510000E1002F011F804460D46844800884FF082
:1015200000034FEAE972A0FB091C03FB09C300FB9F
:1015300002304FF00702CDE90C0108460C9902F089
:101540000AF820184D41CDE90405754800880021AE
:101550000F22CDE90A1001F0EFFF04460D46724854
:1015600000884FF000034FEAE972A0FB091C03FB5F
:1015700009C300FB02304FF00802CDE9080108461C
:10158000089901F0E8FF20184D41CDE90205B8F5B2
:10159000FA6F07DB4FF0000000908246D346064604
:1015A000374684E0B8F5FA6F7EDA89FB09101F220E
:1015B000CDE916010846169901F0CDFF00904FEADB
:1015C000E8704FF4FA62B8EB020160F10000A1FB91
:1015D000012300FB013301FB003105240023A2FBA2
:1015E000040501FB045102FB03110122CDE9141093
:1015F00001F0B1FF82468B464FEAE8704FF4FA6281
:10160000B8EB020160F10000A1FB012300FB0133F4
:1016100001FB00310023A2FB040501FB045102FB86
:1016200003110222CDE9121001F095FF06460F4684
:10163000414880453BDA4FEAE87040F2DC5118EB54
:10164000010140F10000A1FB012300FB013301FB7C
:10165000003407210023104622460C46A0FB041547
:1016600002FB045200FB032011EB0A0A40EB0B0BB8
:101670004FEAE87040F2DC5118EB010140F1000044
:10168000A1FB012300FB013301FB00310B230024EC
:10169000A2FB030501FB035102FB04110122CDE96A
:1016A000181001F058FF00E001E086194F41009842
:1016B000B8EB0008DDE90410B1EB0A0160EB0B00A8
:1016C000CDE90410DDE90220911B60EB0700CDE9B4
:1016D00002100023DDE902420798A0FB041503FB7A
:1016E000045300FB02301522CDE91C0108461C9969
:1016F00001F031FF04460846DDE90423A11A60EB3E
:1017000003000F22CDE91A0108461A9901F023FFC0
:10171000209908601F98C0F8008021B0BDE8F08FC4
:10172000980000209A0000209C0000209E000020CD
:10173000A0000020A200002024FAFFFF10B56FF0E7
:10174000040001F0E6FD2E4800682E49B0FBF1F0E0
:101750002D490870084600784FF47A7100FB01F0BB
:101760002A49088010BD0146274A127801FB02F27F
:101770004FF0E0235A614FF000029A611A46126955
:1017800042F001021A6100BF4FF0E022106910F030
:10179000010F02D010F4803FF6D04FF0E022126922
:1017A00022F001024FF0E0231A614FF000029A612B
:1017B00070470146154A128801FB02F24FF0E02300
:1017C0005A614FF000029A611A46126942F0010212
:1017D0001A6100BF4FF0E022106910F0010F02D033
:1017E00010F4803FF6D04FF0E022126922F001029F
:1017F0004FF0E0231A614FF000029A617047000039
:10180000D000002000127A00A4000020A6000020D2
:101810001FB54FF00000ADF804004FF48060ADF844
:101820000A004FF48040ADF80C004CF250300090AC
:101830006946F94800F095FE0121F74800F01FFFC6
:101840000121F54800F05CFF1FBD08B5012108200B
:1018500001F038FA0121480501F043FA4FF0C000C9
:10186000ADF800004FF003008DF802004FF01C00AF
:101870008DF803006946E94800F0E4FC08BD10B5A6
:10188000FFF7E3FFFFF7C4FF10BD70B504460E4637
:1018900015464FF00101E04800F018FF00BFE04995
:1018A000DD4801F008F80028F9D000222146DA4886
:1018B00000F070FF00BFDB49D74800F0FCFF0028B4
:1018C000F9D03146D44800F05FFF00BFD549891CEC
:1018D000D14800F0F0FF0028F8D02946CE4800F0AB
:1018E00053FF00BFCF49891CCB4800F0E4FF00281C
:1018F000F8D00121C84800F0F6FE70BD70B504466E
:101900000D464FF00101C44800F0E0FE00BFC4499D
:10191000C14800F0D0FF0028F9D000222146BE487F
:1019200000F038FF00BFBF49BB4800F0C4FF0028EB
:10193000F9D02946B84800F027FF00BFB949891CF3
:10194000B54800F0B8FF0028F8D00121B24800F0F7
:10195000CAFE70BD70B504460D4600BF4FF400319D
:10196000AD4800F0D0FF0028F8D10121AA4800F0CE
:10197000ADFE00BFAA49A84800F09DFF0028F9D09D
:1019800000222146A44800F005FF00BFA549A24857
:1019900000F091FF0028F9D001219F4800F06FFE70
:1019A00029469D4800F0F0FE00BF9E49891C9A48D8
:1019B00000F081FF0028F8D00121974800F086FE52
:1019C00000BF9749944800F076FF0028F9D0012223
:1019D0002146914800F0DEFE00BF9149491C8E4827
:1019E00000F069FF0028F8D000218B4800F088FE45
:1019F0000121894800F077FE00BF89493F318648C0
:101A000000F059FF0028F8D0834800F0BFFE0646DA
:101A1000304670BD2DE9F04104460D464FF00006FA
:101A200037464FF001017C4800F06AFE01217A48F8
:101A300000F04CFE00BF7A49774800F03CFF0028D8
:101A4000F9D000222146744800F0A4FE00BF754979
:101A5000714800F030FF0028F9D029466E4800F0A8
:101A600093FE00BF6F49891C6B4800F024FF0028DB
:101A7000F8D00121684800F029FE00BF6849664897
:101A800000F019FF0028F9D001222146624800F039
:101A900081FE00BF6249491C5F4800F00CFF00282E
:101AA000F8D000BF5E493F315B4800F004FF0028DA
:101AB000F8D0594800F06AFE064600BF58493F3149
:101AC000554800F0F8FE0028F8D0534800F05EFEBC
:101AD00007464FF00101504800F005FE00214E4836
:101AE00000F00EFE00BF4E493F314B4800F0E3FED0
:101AF0000028F8D0484800F049FE47EA062000B226
:101B0000BDE8F0812DE9F04704460D464FF0000690
:101B10003746B046B1464FF001013F4800F0F0FDB6
:101B200001213D4800F0D2FD00BF3D493A4800F098
:101B3000C2FE0028F9D000222146374800F02AFED4
:101B400000BF3849344800F0B6FE0028F9D02946D5
:101B5000314800F019FE00BF3249891C2E4800F0C0
:101B6000AAFE0028F8D001212B4800F0AFFD00BFED
:101B70002B49294800F09FFE0028F9D00122214678
:101B8000254800F007FE00BF2549491C224800F007
:101B900092FE0028F8D000BF21493F311E4800F0D6
:101BA0008AFE0028F8D01C4800F0F0FD074600BF70
:101BB0001B493F31184800F07EFE0028F8D0164837
:101BC00000F0E4FD804600BF15493F31124800F0A7
:101BD00072FE0028F8D0104800F0D8FD81464FF082
:101BE00001010D4800F07FFD00210B4800F088FD49
:101BF00000BF0B493F31084800F05DFE0028F8D0D7
:101C0000054800F0C3FD4FEA074040EA082040EADB
:101C100009063046BDE8F08700540040000C014042
:101C2000010003008200070070B504460D464FF026
:101C30000101344800F04AFD00BF3349314800F04B
:101C40003AFE0028F9D0002221462E4800F0A2FDDD
:101C500000BF2E492B4800F02EFE0028F9D029465F
:101C6000284800F091FD00BF2849891C254800F054
:101C700022FE0028F8D00121224800F034FD00BFE8
:101C80002249891C1F4800F016FE0028F8D070BDBC
:101C900070B504460E4615464FF00101194800F094
:101CA00015FD00BF1849174800F005FE0028F9D0BF
:101CB00000222146134800F06DFD00BF1349114872
:101CC00000F0F9FD0028F9D029460E4800F05CFD2F
:101CD00000BF0E49891C0B4800F0EDFD0028F8D02C
:101CE0003146084800F050FD00BF0849891C0548EE
:101CF00000F0E1FD0028F8D00121024800F0F3FCDB
:101D000070BD000000540040010003008200070085
:101D100008B50121042000F0D5FF4FF00300ADF815
:101D200000004FF028008DF8030069461F4800F0BE
:101D300089FA08BD10B5FFF7EBFF00226B21D02018
:101D4000FFF7A3FD07221921D020FFF79EFD0622F1
:101D50001A21D020FFF799FD08221B21D020FFF780
:101D600094FD08221C21D020FFF78FFD00226A215C
:101D7000D020FFF78AFD02223721D020FFF785FD12
:101D800010BD70B5044621464FF0D000FFF7E2FDCC
:101D9000054604F10100C1B24FF0D000FFF7DAFDB3
:101DA000064606EB052000B270BD000000080140A9
:101DB00010B5002270213C20FFF76AFF02220021AB
:101DC0003C20FFF765FF10BD70B504464FEA447034
:101DD0004FEA10654FF0010229464FF03C00FFF733
:101DE00057FF70BD70B50446BA4805784FF002023F
:101DF00029464FF03C00FFF74BFFB648047070BD1A
:101E000010B54FF070044FF0000221464FF03C0037
:101E1000FFF73EFF0120FFF7D7FF0120FFF7E2FFAA
:101E200010BD10B503213D20FFF794FDAA490870AD
:101E300004213D20FFF78EFDA749487005213D2074
:101E4000FFF788FDA449887006213D20FFF782FD39
:101E5000A149C87007213D20FFF77CFD9E4908710C
:101E600008213D20FFF776FD9B49487108464078E0
:101E7000097840EA0120994908609748C078964956
:101E8000897840EA01209549486093484079924911
:101E9000097940EA01209149886008460068B0F558
:101EA000004F06DB08460068A0F57F40A0F1FF0068
:101EB00008608A484068B0F5004F07DB87484068F3
:101EC000A0F57F40A0F1FF00844948608348806806
:101ED000B0F5004F07DB81488068A0F57F40A0F196
:101EE000FF007E49886010BD2DE9FE4F4FF0000ACB
:101EF000D34650460290FFF794FF78480068A0EB65
:101F00000A007749086075484068A0EB0B004860FC
:101F1000724881680298A1EB0000714988600868E6
:101F200001F07EFD009001F084FD06460F466C49ED
:101F3000486801F075FD009001F07BFD8046324657
:101F40003B4602F0D3FF044601F09EFD01900021C4
:101F5000019801F0B5FD04D26249019801F00DFB32
:101F60000190019801F065FD80465F4A5F4B01F0EA
:101F700078FC06465E4A5F4B01F0CDFB044601F05B
:101F800083FD01905C49019801F0A4FD04D25A49F7
:101F9000019801F044FB01900198BDE8FE8F2DE906
:101FA000F04756A001F01EFFFFF73BFF4B480068CB
:101FB00005460446494840688046074647488068C9
:101FC000824681464FF0000052490860524908603D
:101FD00052490860064639E0FFF723FF3F48006892
:101FE000A04201DD3D4804683C480068A84201DA8F
:101FF0003A48056839484068B84201DD37484768C3
:1020000036484068404502DA3448D0F80480334806
:102010008068484502DD3148D0F808902F48806834
:10202000504502DA2D48D0F808A06420FFF7C1FB24
:102030000A2096FBF0F100FB116020B92A462146E8
:1020400037A001F0CFFE06F10100C6B2C82EC3DBF7
:10205000601B01D4014600E04142002907DD04EB8A
:10206000050000EBD0714FEA61012C4A1160B7EB1B
:10207000080001D4014600E04142002907DD07EBDA
:10208000080000EBD0714FEA6101234A1160B9EBFF
:102090000A0001D4014600E04142002907DD09EBB6
:1020A0000A0000EBD0714FEA61011A4A11604FF447
:1020B0004870FFF77EFB1748036817480268174807
:1020C00001681BA001F08EFE1FA001F08BFEBDE891
:1020D000F0870000AE000020A80000202C010020A6
:1020E00038010020DB0FC94026CF030DDCA54C4092
:1020F000B81E85EB51B811400000B4430D0A20B45E
:10210000C5C1A6BCC6D0A3D7BC2E2E2E2E2E0D0A1E
:1021100000000000B8000020B4000020B000002043
:102120006D61782D25642C6D696E2D25640D0A0076
:102130000D0A206F66667365742825642C25642C4F
:102140002564290D0A0000000D0A20B4C5C1A6BCF3
:10215000C6D0A3D7BCCDEAB3C9A1A30D0A00000025
:102160000648804706480047FEE7FEE7FEE7FEE731
:10217000FEE7FEE7FEE7FEE7FEE7FEE7293400089C
:102180003101000810B50446DE48844208D101211F
:10219000042000F0B5FD0021042000F0B1FD46E070
:1021A000D948844208D10121082000F0A9FD00216E
:1021B000082000F0A5FD3AE0D448844208D101216E
:1021C000102000F09DFD0021102000F099FD2EE070
:1021D000CF48844208D10121202000F091FD002148
:1021E000202000F08DFD22E0CA48844208D1012160
:1021F000402000F085FD0021402000F081FD16E028
:10220000C548844208D10121802000F079FD0021D9
:10221000802000F075FD0AE0C048844207D101210A
:10222000801500F06DFD0021A01500F069FD10BDC6
:1022300010B50121084600F063FD0021012000F0E7
:102240005FFD10BD2DE9F04102464FF000052E461E
:10225000284603460446074691F803C00CF00F05D4
:1022600091F803C01CF0100F03D091F802C04CEAA3
:102270000505B1F800C01CF0FF0F35D014684FF011
:1022800000002EE04FF0010C0CFA00F3B1F800C092
:102290000CEA03069E4222D14FEA80034FF00F0C56
:1022A0000CFA03F724EA070405FA03FC4CEA0404D9
:1022B00091F803C0BCF1280F06D14FF0010C0CFAC5
:1022C00000FCC2F814C00AE091F803C0BCF1480F4A
:1022D00005D14FF0010C0CFA00FCC2F810C000F15F
:1022E00001000828CED31460B1F800C0BCF1FF0F84
:1022F00038DD54684FF0000031E000F1080C4FF079
:10230000010808FA0CF3B1F800C00CEA03069E427B
:1023100023D14FEA80034FF00F0C0CFA03F724EAA5
:10232000070405FA03FC4CEA040491F803C0BCF16D
:10233000280F05D100F1080C08FA0CF8C2F8148037
:1023400091F803C0BCF1480F07D100F1080C4FF021
:10235000010808FA0CF8C2F8108000F10100082802
:10236000CBD35460BDE8F0814FF6FF7101804FF090
:10237000020181704FF00401C170704702464FF0B6
:10238000000093680B4202D04FF0010001E04FF0D3
:10239000000070470146886880B2704702464FF0DF
:1023A0000000D3680B4202D04FF0010001E04FF073
:1023B000000070470146C86880B2704701617047ED
:1023C000416170470AB1016100E041617047C1603D
:1023D00070474FF4803242EA01028261816182617A
:1023E00082698269704702464FF000004C4B1868C2
:1023F0004FF6807300EA030040EA021040EA010051
:10240000474B186070474749C8617047F0B50A46A6
:102410004FF000031C4619460D4600F00046B6F189
:10242000004F02D13E4EF16901E03D4E7168C0F3AC
:10243000034583B200F44016B6F5401F08D121F0E1
:102440007061374E766826F07066354F7E6017E013
:1024500000F48016B6F5801F08D14FF0030606FA87
:1024600005F421EA040141F0706109E04FEA505699
:102470004FEA061603FA06F621EA060141F07061FA
:102480003AB14FEA50564FEA061603FA06F646EA04
:10249000010100F00046B6F1004F02D1204EF1617B
:1024A00001E01F4E7160F0BD30B54FF000024FEA01
:1024B00081734FEA13744FF00F0303FA04F21A4BBF
:1024C0004FEAA10453F8243023EA0203164C4FEAE2
:1024D000A10544F8253023464FEAA10453F82430DF
:1024E0004FEA81744FEA147400FA04F443EA0403D7
:1024F0000D4C4FEAA10544F8253030BD0B4908606A
:102500007047000000080140000C0140001001402D
:102510000014014000180140001C0140002001404F
:10252000000001400000204208000140DC00204281
:1025300010B50446FB48844209D10121480500F04A
:10254000EEFB00214FF4001000F0E9FB08E0012150
:10255000880500F0E4FB00214FF4800000F0DFFB71
:1025600010BD2DE9F04385B004460D464FF000063E
:10257000B1464FF00407DFF8B083A6884FF6C0706D
:1025800006EA0006684600F022FBDDF80880E7480E
:10259000B8FBF0F01FFA80F946EA0906A680208809
:1025A0004FF6FE7100EA010020804FF00006E0497E
:1025B000286888420FD828684FEA4000B8FBF0F03E
:1025C00087B2042F01DA4FF0040746EA070609F143
:1025D0000100208429E0E888A0F53F41FF3906D1B9
:1025E000286800EB4000B8FBF0F087B209E02868EB
:1025F00000EBC00101EB0010B8FBF0F087B247F42C
:1026000080473805000D01D147F0010747F400402D
:1026100040EA06064FF4967009FB00F04FF47A7119
:1026200090FBF1F000F101002084A683208840F0A7
:102630000100208026884FF6F53006EA0006A888BB
:10264000698940EA010040EA06062680A8892989AE
:1026500040EA0100208105B0BDE8F08341F28831F5
:1026600001604FF0000181804BF6FF71C1804FF097
:102670000001018141814FF480418181704721B186
:10268000028842F00102028005E002884FF6FE73E4
:1026900002EA03020280704721B1828842F400629C
:1026A000828005E082884FF2FF7302EA0302828093
:1026B000704721B1828842F48052828005E082888E
:1026C0004EF6FF7302EA03028280704721B102884E
:1026D00042F48072028005E002884FF6FF6302EA4E
:1026E00003020280704721B1028842F40072028026
:1026F00005E002884FF6FF5302EA030202807047AA
:1027000021B1028842F48062028005E002884FF61F
:10271000FF3302EA0302028070470A464FF00001CD
:1027200081894FF6017301EA030102F0FE0343EAD7
:1027300001018181704721B1828942F001028281C9
:1027400005E082894FF6FE7302EA03028281704738
:1027500021B1028842F04002028005E002884FF673
:10276000BF7302EA03020280704710B522B183886A
:1027700043EA0103838006E083886FEA0104A4B280
:1027800003EA0403838010BD018270470146088A72
:10279000C0B2704712B141F0010103E04FF6FE7381
:1027A00001EA03010182704702464FF0000313461D
:1027B0000B441888704721B1028842F4004202801D
:1027C00003E00288C2F30E0202807047B1F5006F89
:1027D00004D1028842F40062028005E002884FF2D0
:1027E000FF7302EA030202807047B1F5005F04D173
:1027F000028842F40052028005E002884DF6FF7321
:1028000002EA03020280704721B1028842F480523A
:10281000028005E002884EF6FF7302EA030202809E
:102820007047B1F5006F04D1028842F40062028063
:1028300005E002884FF2FF7302EA0302028070474C
:1028400021B1028842F02002028005E002884FF6A2
:10285000DF7302EA0302028070470146088B4FEAE9
:102860002020704721B1028842F01002028005E06A
:1028700002884FF6EF7302EA03020280704721B923
:10288000028842F08002028005E002884FF67F73E2
:1028900002EA030202807047B1F5804F06D0828BB6
:1028A0004BF6FF7302EA0302828303E0828B42F459
:1028B00080428283704770B502464FF0000425467F
:1028C00023461846958A138B4FEA034345EA0306CD
:1028D00026F07F4404EA01068E4202D14FF0010047
:1028E00001E04FF0000070BD10B501464FF0000050
:1028F000034602468B8A0A8B4FEA024243EA0204ED
:1029000024F07F4010BD30B503464FF00000044670
:1029100002461A464FEA117421F07F4154B102F188
:1029200014020BE00054004000127A0040420F00F5
:10293000A08601004FEA114102F1180215680D420C
:1029400002D04FF0010001E04FF0000030BD4FF029
:10295000000221F07F426FEA02038382704730B5A4
:1029600002464FF000000346948801F0E06504EA57
:10297000154321F07F41948A0C4203D013B14FF0EC
:10298000010001E04FF0000030BD4FF0000221F0E7
:102990007F426FEA0203838270470000F7480068B5
:1029A00040F00100F549086008464068F44900EA33
:1029B0000100F249486008460068F24900EA010057
:1029C000EE4908600846006820F480200860084648
:1029D000406820F4FE0048604FF41F008860704794
:1029E000E649096821F48031E44A1160114609681A
:1029F00021F480211160B0F5803F03D0B0F5802F25
:102A00000ED106E0DD49096841F48031DB4A1160EE
:102A100007E0DA49096841F4A021D84A116000E0D2
:102A200000BF00BF704710B501464FF000021346CB
:102A300010464FEA6112012A02D1D04C236806E009
:102A4000022A02D1CD4C236A01E0CC4C636A01F02A
:102A50001F024FF0010404FA02F41C4202D04FF0AE
:102A6000010001E04FF0000010BD70B54FF0000410
:102A70002546264600BF3120FFF7D5FF064604F164
:102A80000104B4F5A06F01D0002EF4D03120FFF77F
:102A9000CAFF10B14FF0010501E04FF000052846D4
:102AA00070BD01464FF00000B44A106820F0F800F5
:102AB00040EAC10010607047B349086070470246A1
:102AC0004FF00000AD4B586820F47C1042EA01033F
:102AD00043EA0000A94B58607047AB49086670474D
:102AE00001464FF00000A54A506820F0030040EA7C
:102AF000010050607047A148406800F00C0070472A
:102B000001464FF000009D4A506820F0F00040EA76
:102B100001005060704701464FF00000974A50682E
:102B200020F4E06040EA01005060704701464FF039
:102B30000000924A506820F4605040EAC1005060A2
:102B4000704731B18D4A527A42EA00028B4B5A7279
:102B500008E08A4A527A6FEA0003DBB202EA030213
:102B6000864B5A72704789490860704701464FF09A
:102B70000000824A506820F4404040EA0100506062
:102B800070474FF00001824A11707C4A82F8201091
:102B9000012802D004280AD104E04FF001017C4A48
:102BA000117005E04FF00501794A117000E000BF97
:102BB00000BF70477749086070477049096A41EA69
:102BC00000016E4A1162704773490860704730B562
:102BD0004FF000010A460C460B46684D6D6805F043
:102BE0000C0121B1042905D0082927D105E06B4D3E
:102BF000056026E0694D056023E0604D6D6805F4D1
:102C000070125E4D6D6805F480344FF0020505EBDF
:102C1000924224B9624D02FB05F505600DE0574D67
:102C20006D6815F4003F04D05D4D02FB05F50560AD
:102C300003E05A4D02FB05F5056002E0574D0560C3
:102C400000BF00BF4D4D6D6805F0F0014FEA111156
:102C5000544D6B5C056825FA03F54560474D6D687A
:102C600005F4E0614FEA11214E4D6B5C456825FA91
:102C700003F58560414D6D6805F460514FEAD1213F
:102C8000484D6B5C456825FA03F5C5603B4D6D68A2
:102C900005F440414FEA9131434D6B5CC568B5FB8B
:102CA000F3F5056130BD31B1344A526942EA0002A0
:102CB000324B5A6105E0314A526922EA00022F4B39
:102CC0005A61704731B12D4A926942EA00022B4B9A
:102CD0009A6105E0294A926922EA0002274B9A612B
:102CE000704731B1254AD26942EA0002234BDA61CA
:102CF00005E0224AD26922EA0002204BDA617047DD
:102D000031B11E4AD26842EA00021C4BDA6005E08B
:102D10001A4AD26822EA0002184BDA60704731B1D1
:102D2000164A126942EA0002144B1A6105E0134A7E
:102D3000126922EA0002114B1A6170471B490860B0
:102D400070471149C86470470C49C87170470B48F7
:102D5000406A40F0807009494862704701464FF070
:102D60000000064A92680A4202D04FF0010001E0DA
:102D70004FF0000070470149887270470010024010
:102D80000000FFF8FFFFF6FE00004242D80042427A
:102D900020100240800442423C04424200127A0069
:102DA00000093D00BC000020CC000020400442424D
:102DB00010B50446F848844209D101218803FFF781
:102DC0009FFF00214FF48040FFF79AFF32E0F34865
:102DD000844209D101214804FFF7A1FF00214FF4EB
:102DE0000030FFF79CFF25E0ED48844209D1012126
:102DF0008804FFF794FF00214FF48020FFF78FFF36
:102E000018E0E848844209D10121C804FFF787FF90
:102E100000214FF40020FFF782FF0BE0E2488442DC
:102E200008D101210805FFF77AFF00214FF4801037
:102E3000FFF775FF10BD2DE9F04786B005460E4639
:102E40004FF00004A24600BFA1462746B08900B15A
:102E500000BF2F462C8A4CF6FF7004EA0004F0886D
:102E600040EA04042C82AC894EF6F31004EA000414
:102E7000B088318940EA0100718940EA010040EAE6
:102E80000404AC81AC8A4FF6FF4004EA0004B08928
:102E900040EA0404AC8201A8FFF799FEBE488742CD
:102EA00002D1DDF810A001E0DDF80CA0A88910F433
:102EB000004F09D00AEBCA0000EB0A1031684FEA54
:102EC0004101B0FBF1F808E00AEBCA0000EB0A1080
:102ED00031684FEA8101B0FBF1F84FF06400B8FBB4
:102EE000F0F04FEA00144FEA14104FF0640101FBB8
:102EF0001089A88910F4004F0AD04FF0320000EB7F
:102F0000C900B0FBF1F000F0070040EA04040BE058
:102F10004FF0320000EB09104FF06401B0FBF1F00C
:102F200000F00F0040EA04042C8106B0BDE8F087F1
:102F30004FF4165101604FF000018180C180018182
:102F40004FF00C0141814FF000018181704710B5B5
:102F500002464FF00000108A4FF2FF0300EA030020
:102F60000B884C8843EA04038C8843EA0403CC882A
:102F700043EA040343EA0000108210BD4FF0000151
:102F8000018041808180C180704721B1828942F4F3
:102F90000052828105E082894DF6FF7302EA030246
:102FA00082817047F0B503464FF00004264625465F
:102FB0002046A1F510676A3F00D100BF1846C1F353
:102FC000421401F01F064FF0010707FA06F5012C25
:102FD00002D100F10C0006E0022C02D100F1100039
:102FE00001E000F1140022B1076847EA0507076015
:102FF00003E0076827EA05070760F0BD10B522B1B6
:10300000838A43EA0103838206E0838A6FEA01042C
:10301000A4B203EA0403838210BD028A4FF6F07360
:1030200002EA03020282028A42EA01020282704735
:1030300082894FF2FF7302EA03028281828942EAA7
:1030400001028281704721B1828942F002028281AD
:1030500005E082894FF6FD7302EA03028281704720
:10306000028A4FF6DF7302EA03020282028A42EA10
:1030700001020282704721B1028A42F48042028238
:1030800005E0028A4BF6FF7302EA030202827047F0
:10309000C1F308028280704701468888C0F30800A7
:1030A0007047818941F0010181817047028BD2B262
:1030B0000283028B42EA012202837047028B02F4F0
:1030C0007F420283028B42EA01020283704721B1F0
:1030D000828A42F02002828205E0828A4FF6DF7304
:1030E00002EA03028282704721B1828A42F0100212
:1030F000828205E0828A4FF6EF7302EA030282823F
:10310000704721B1828A42F00802828205E0828AF9
:103110004FF6F77302EA03028282704721B1828977
:1031200042F40042828103E08289C2F30E0282816E
:10313000704721B1828A42F40062828205E0828A6D
:103140004FF2FF7302EA030282827047828A4FF6CF
:10315000FB7302EA03028282828A42EA01028282CD
:10316000704721B1828A42F00202828205E0828A9F
:103170004FF6FD7302EA03028282704702464FF067
:103180000000B1F5007F00D100BF13880B420DD0C5
:103190004FF001000CE00000003801400044004006
:1031A00000480040004C0040005000404FF000003C
:1031B000704701F40072B2F5007F00D100BF6FEAE2
:1031C00001020280704770B502464FF000042346AA
:1031D0001D461846A1F510666A3E00D100BFC1F336
:1031E000421501F01F034FF0010606FA03F3012D0B
:1031F00003D1968906EA030308E0022D03D1168A5B
:1032000006EA030302E0968A06EA03034FEA212452
:103210004FF0010606FA04F4168806EA04041BB10E
:1032200014B14FF0010001E04FF0000070BD10B587
:103230004FF000021346A1F510646A3C00D100BFB4
:103240004FEA21224FF0010404FA02F4A3B26FEA1C
:103250000304048010BD0000384940EA0101384AE7
:103260001160704770B54FF000010B464FF00F0230
:10327000C4784CB3324C246804F4E064C4F5E064D0
:103280004FEA1421C1F1040322FA01F2447804FA4E
:1032900003F1847804EA020444EA01014FEA0111CF
:1032A000284C0678A155047804F01F054FF001045E
:1032B00004FA05F405784FEA65154FF0E02606EBB1
:1032C0008505C5F800410CE0047804F01F054FF0B7
:1032D000010404FA05F41C4D06784FEA661645F819
:1032E000264070BD194A01EA020242EA0002184B68
:1032F0001A60704731B1174A126842EA0002154B52
:103300001A6005E0134A126822EA0002114B1A60A3
:103310007047042808D14FF0E021096941F0040109
:103320004FF0E022116107E04FF0E021096921F040
:1033300004014FF0E0221161704700000000FA051F
:103340000CED00E000E400E080E100E080FFFF1F02
:1033500008ED00E010ED00E04FF0000108466D4A76
:10336000126842F480326B4B1A6000BF694A1268DF
:1033700002F4003001F1010110B9B1F5A06FF5D1EF
:10338000644A126812F4003F02D04FF0010001E0DD
:103390004FF00000012842D15F4A126842F010024B
:1033A0005D4B1A601A46126822F003021A601A4630
:1033B000126842F002021A60564A5268554B5A602F
:1033C0001A4652685A601A46526842F480625A603D
:1033D0001A46526822F47C125A601A46526842F425
:1033E000E8125A601A46126842F080721A6000BFF2
:1033F000484A126812F0007FFAD0464A526822F01A
:103400000302444B5A601A46526842F002025A6064
:1034100000BF404A526802F00C02082AF9D17047F6
:1034200010B5FFF799FF10BD10B53A48006840F09D
:1034300001003849086008464068384900EA010040
:103440003449486008460068354900EA01003149BE
:1034500008600846006820F480200860084640683C
:1034600020F4FE0048604FF41F008860FFF7D8FF8B
:103470004FF000602B49086010BD10B54FF00001FF
:1034800008460246234B5B6803F00C0121B1042976
:1034900006D008292CD107E0234B244C23602BE0D5
:1034A000214B224C236027E01A4B5B6803F4701019
:1034B000184B5B6803F480324FF0020303EB90403B
:1034C0002AB91B4B00FB03F3184C23600FE0114B90
:1034D0005B6813F4003F05D0154B00FB03F3134C5E
:1034E000236004E0104B00FB03F3104C236003E067
:1034F0000D4B0E4C236000BF00BF064B5B68C3F34F
:1035000003130C4CE15C094B1B6823FA01F3074CD5
:10351000236010BD00100240002002400000FFF8B0
:10352000FFFFF6FE08ED00E000127A00D000002058
:1035300000093D00D4000020202A04DB203A00FAD4
:1035400002F1002070479140C2F1200320FA03F3FA
:10355000194390407047202A06DBCB17203A41FAE6
:1035600002F043EAE071704741FA02F3D040C2F141
:1035700020029140084319467047F0B480EA0102E6
:10358000D20F4300B3EB410F02D20346084619465F
:103590004B0042D0C30DDDB2C1F3C7542C1B202C0D
:1035A00035DAC1F3160141F4000502B16D42C4F1F0
:1035B000200605FA06F125412844B3EBD05F23D05D
:1035C000C2B1012CA0EBC35009DCF0BC4FF00042AB
:1035D00002EAC35200F50000DBB200F0D5BA4000A9
:1035E00000F1807000EBC350A0F1807040EAD17010
:1035F000490009E0490841EAC071A0EBC35000F559
:103600000000400800EBC350F0BC00F0B4BA5142D7
:10361000012303EB4101801AF6E7F0BC704781F00B
:103620000041AAE780F00040A7E780EA010210B558
:1036300002F00042400026D04B0023D04FEA106138
:1036400001EB1361C0F35600C3F3560340F40000CE
:1036500043F40003A0FB0330A1F17F014FEA0040D7
:103660001C0401D000F1010050EA134001D44000D5
:10367000491EC3B20C0604EBD010401C4008802B3E
:1036800002D003E0002010BD20F00100002900DA84
:103690000020104310BD80EA010202F0004330B464
:1036A00030F0004221F0004015D0A0B1C0F3C75562
:1036B000C2F3C754C2F31601C0F31600651B41F4F0
:1036C000000140F400007D35814201D36D1C00E013
:1036D0004900002D02DA30BC002070474FF4000290
:1036E0000024814201D3091A144352084FEA4101D0
:1036F000F7D151B1814202D14FF0004105E002D231
:103700004FF0010101E06FF0010104EBC55030BC46
:10371000184400F030BA2DE9FE4F074681EA030055
:10372000C00F0E46019021F0004123F00044B81A6A
:10373000A14105D23846314617461E460B46024681
:1037400023F00040104304D13846314603B0BDE8B1
:10375000F08F350DC5F30A00C3F30A510290401AE9
:103760000090402868DAC3F3130040F4801B0198EE
:10377000924620B10023D2EB030A63EB0B0B0098B7
:103780005946C0F140025046FFF7D6FE80460C462F
:1037900050465946009AFFF7DEFEC0197141EF17F7
:1037A00085EA11533B4340D0019A52B3009A012A53
:1037B00011DC0022801A4FF0004361EB055103EA4F
:1037C00005538018CDE9002341F580114246234678
:1037D00000F014FABAE72E050025401B61EB060144
:1037E000401941F58012001852412818A6F500131F
:1037F00043EB020140EAD470294318EB0808644106
:1038000013E064084FEA38084FF0000244EAC0743D
:103810004FEA0553801A61EB0301801841F58011CE
:1038200049084FEA3000801859414246234603B008
:10383000BDE8F04F00F0D5B9019801224000002307
:10384000D0EB020263EBE07301984FEAE074381AA0
:1038500066EB0401EBE783F000435CE781F0004195
:1038600059E72DE9FE4F81EA030421F0004504F0F9
:10387000004423F000414FF0000A009450EA050391
:1038800002D052EA010304D10020014603B0BDE892
:10389000F08FC1F30A53C5F30A541C44A0FB02B3D2
:1038A000C5F3130545F4801CC1F3130141F48018DE
:1038B0000CFB023300FB083EA4F2F334810A930AA6
:1038C00041EA8C5143EA88530194A1FB03474FEA34
:1038D0009C2505FB03734FEA982601FB06373D053F
:1038E000260545EA1435BBEB06016EEB0503850E94
:1038F000920E45EA8C1542EA8812A5FB0206261EA6
:1039000067EB00070C0D44EA0334A41947EB13508E
:10391000C1F313064FF0000319464FEA033343EA9D
:10392000165343EA0403019CE5FB0201A4F10C04D5
:103930000294009C4FEA0632CDE900A400F05EF943
:10394000A4E72DE9F04D81EA030404F0004B21F0D7
:10395000004714464FF0000A23F0004150EA0702E6
:1039600020D054EA01021DD0C1F30A550246C1F32A
:103970001300C7F30A56C7F3130340F4801143F44E
:103980008013A6EB0508101BD64608F2FD3873EB32
:10399000010002D308F1010801E092185B41B8F17F
:1039A000000F03DA00200146BDE8F08D00204FF43F
:1039B0008015064607460EE0B2EB040C73EB010CD3
:1039C00004D3121B064363EB01032F436D084FEA38
:1039D000300092185B4150EA050CEDD152EA030029
:1039E00012D082EA040083EA0105284303D10022B1
:1039F0004FF0004308E0101B8B4102D2012200234C
:103A000002E06FF0010253101AEB060047EB085179
:103A100010EB0A0041EB0B01BDE8F04D00F0E1B8FE
:103A2000C10F80EAE0700844CA079623002100F025
:103A3000ABB800F0004230F000400DD0C10D01F5F0
:103A4000607142EA01510022C0F31600520742EAB7
:103A5000D002400711437047002001467047000024
:103A600030B5002904DB4FF00044404264EB010113
:103A7000002B04DB4FF00044524264EB03039942F5
:103A800008BF904230BD000001F0004230B421F088
:103A9000004150EA010306D00B0DA3F56073C1F39A
:103AA0001301002B02DC30BC00207047440F44EAB5
:103AB000C104C100A01830BC00EBC35000F05BB8DB
:103AC000002801DBC0F10040002901DBC1F1004109
:103AD00081427047002801DBC0F10040002901DB72
:103AE000C1F100418842704730B50B4601460020C5
:103AF0002022012409E021FA02F59D4205D303FAB0
:103B000002F5491B04FA02F52844151EA2F1010230
:103B1000F1DC30BD2DE9F05F0546002092469B4662
:103B200088460646814640241BE0284641464746D3
:103B3000224600F047F952465B46801A994110D35D
:103B4000104619462246FFF7F7FC2D1A67EB0108CD
:103B50004F46224601200021FFF7EEFC17EB00093B
:103B60004E41201EA4F10104DFDC484631462A46BE
:103B70004346BDE8F09F0029A8BF7047401C49009C
:103B800008BF20F00100704710B4B0FA80FC00FAC2
:103B90000CF050EA010404BF10BC704749B1CCF1ED
:103BA000200421FA04F411FA0CF118BF0121214379
:103BB0000843A3EB0C01CB1D0106000A002BBEBF7E
:103BC000002010BC704700EBC35010440029A4BF74
:103BD00010BC7047401C490008BF20F0010010BC19
:103BE000704710B5002B08DA401C41F10001921813
:103BF0005B411A4301D120F0010010BD2DE9F04DC9
:103C000092469B4611B1B1FA81F202E0B0FA80F21D
:103C100020329046FFF790FC06460F4640EA0A0025
:103C200041EA0B0152465B46084303D13046394610
:103C3000BDE8F08D194652EA010015D0C8F14002E6
:103C4000504600F0BFF804460D46504659464246DD
:103C5000FFF772FC084301D0012000E0002004437C
:103C600045EAE07526432F430A984FEAD625A0EB94
:103C700008000A304FEA46534FF0000245EA475524
:103C80004FEAD72402D500200146D1E7010550199B
:103C90006141DDE9084500196941BDE8F04DA0E743
:103CA00070B521F0004303430CD0C1F30A54002641
:103CB000D4EB060566EB0603D417AD1AA34102DB6D
:103CC0000020014670BD001C41EB025170BD2DE982
:103CD000F04D00231A461B1A8A4103DB00200146DF
:103CE000BDE8F08DC1F30A52C1F3130141F4801510
:103CF0004FF0000BD10702D100186D41521E002673
:103D0000044640F2FF11304601EB620A3746804616
:103D1000024600204FF4801100F054F880197941D8
:103D2000331847EB0102B4EB030C75EB020C04D320
:103D3000E41A65EB020506460F46241908F1010056
:103D40006D4180463428E3DDB11947EB0700091BBC
:103D5000A84103D24FF0FF32134601E00022134680
:103D60001BEB060047EB0A51BDE8F04DFFF739BFEA
:103D7000C1F30A52C1F3130140F2FF3341F4801141
:103D80009A4202DA00200146704740F233439A42D9
:103D9000A2F2334202DC524200F014B8FFF7CCBB6F
:103DA000064C074D06E0E06840F0010394E8070088
:103DB00098471034AC42F6D3FCF7BEF9F85100082E
:103DC00018520008202A04DB203A21FA02F00021D0
:103DD000704721FA02F3D040C2F12002914008431B
:103DE000194670470FB4054B10B503A9044A029851
:103DF00000F03AF910BC5DF814FB000089120008CD
:103E0000E4000020490050EAC12018BF04204A0DF8
:103E100018BF40F0010040F2FF72B2EB515F08BFE3
:103E200040F00200012808BF052070472DE9F0414D
:103E30004F1E00EBC7010446D1E9000115461E469E
:103E400037F006020DD02A463346FFF70AFD7F1EE3
:103E500004EBC703D3E90023FFF75DFC37F006024C
:103E6000F1D1022F25D0042F13D0062F18BFBDE8A3
:103E7000F0812A463346FFF7F4FCD4E90A23FFF722
:103E80004AFC2A463346FFF7ECFCD4E90823FFF747
:103E900042FC2A463346FFF7E4FCD4E90623FFF749
:103EA0003AFC2A463346FFF7DCFCD4E90423FFF74B
:103EB00032FC2A463346FFF7D4FCD4E90223FFF74D
:103EC0002AFC2A463346FFF7CCFCD4E90023BDE8A0
:103ED000F041FFF720BC0000024A00201107FFF765
:103EE000DFBE000001FDFFFF02E008C8121F08C18D
:103EF000002AFAD170477047002001E001C1121F6B
:103F0000002AFBD17047000001490860704700009B
:103F1000E80000202DE9FF5FDDE90210020DDDF869
:103F200038B001430FD10F9801244AA3012807D0CC
:103F300000980F9AC0E90031C0E90242BDE8FF9F36
:103F40006FEA0B01F4E7A2F2FF3244F6105042434D
:103F500015140F9801280ED0A5EB0B00401C4FF054
:103F600000043D4EDFF8F490B0F1000AA04605DAF7
:103F7000CAF1000717E0CBF10000F0E7074612E0B6
:103F8000F80707D02246334640464946FFF769FC0A
:103F9000804689462246334610461946FFF761FCA3
:103FA00004460E467F10002FEAD1DDE90201BAF186
:103FB000000F42464B4602DAFFF753FC01E0FFF7E1
:103FC000C0FC04460E460022254BFFF749FD03D8EE
:103FD0004FF0FF30014607E00022224B20463146D9
:103FE000FFF799FBFFF7C4FE102409E0002C0ADB61
:103FF0000A220023FFF78EFD019B30321A55641E02
:1040000050EA0102F2D1641C019AC4F11103144474
:104010000F9A012A07D00122084301D15B450DDD2B
:1040200000226D1C0DE0084303D1A3EB0B056D1EB0
:1040300009E000204FF0110B0F908AE701DA00220F
:104040006D1E002A85D000980F99C0E90231C0E9A1
:10405000004573E730000000000024400000F03FFE
:104060000000F0430000E03F2DE9FF4F95B0064609
:104070009A468946002521E2252801D01799A6E015
:104080000024F9492746761C4FF001080394327842
:10409000203A08FA02F0084202D00443761CF6E700
:1040A00030782A2811D06FF02F023078A0F130013B
:1040B000092916D8039944F0020401EB810102EBAF
:1040C00041010844761C0390EFE759F8041B039163
:1040D000002903DA484244F40054039044F00204F7
:1040E000761C30782E2816D116F8010F44F00404FF
:1040F0002A280DD06FF02F013078A0F13002092A64
:1041000009D807EB870201EB42028718761CF3E718
:1041100059F8047B761C30786C280FD006DC4C28CC
:1041200017D068280DD06A2814D104E0742810D064
:104130007A280FD10DE044F400140AE044F480140E
:1041400001E044F440147178814202D1761C04F5F8
:104150008014761C96F800C0BCF1660F10D01ADCF3
:10416000BCF1580F70D00CDCBCF1000F6DD0BCF16D
:10417000450FF3D0BCF1460FF0D0BCF1470F24D16E
:10418000A4E1BCF1630F40D0BCF1640F74D0BCF16A
:10419000650F1AD19AE1BCF1700F6ED00CDCBCF146
:1041A000670FEDD0BCF1690F75D0BCF16E0F12D066
:1041B000BCF16F0F09D1B3E0BCF1730F2FD0BCF18C
:1041C000750F76D0BCF1780F74D0179960465246BF
:1041D00090476D1C70E1C4F30250022809D00328F7
:1041E0000DD0D9F8001004280DD00D6009F1040994
:1041F00062E1D9F80010EA17C1E90052F6E7D9F8F0
:1042000000100D80F2E70D70F0E759F8041B8DF8EF
:10421000001000208DF80100EB46012003E059F862
:1042200004BB4FF0FF3061074FF0000102D40FE0F4
:1042300008F101018846B94211DA8045F8DB1BF824
:1042400008100029F4D10AE060E03BE108F1010127
:1042500088468142FADB1BF808100029F6D1039842
:104260005346A0EB080721463846179A00F091FA0A
:10427000284400EB080506E00DE049E01BF8010BBF
:10428000524617999047B8F10108F7D25346214694
:104290003846179A0DE10A21C4F302524FF0000B81
:1042A0000091022A07D059F8040BC117032A0AD03B
:1042B0000BE024E025E009F1070020F00702F2E816
:1042C0000201914605E000B2C117042A01D140B2B3
:1042D000C117002906DA0A460021404261EB0201BB
:1042E0002D2202E0220504D52B228DF80420012284
:1042F00003E0E20701D02022F7E7904654E00A21CC
:1043000000E010214FF0000B00910DE0102008E0BC
:1043100010204FF0000B44F004040827009003E045
:1043200008204FF0000B0090C4F30252022A05D07F
:1043300059F8040B0021032A08D009E009F107000D
:1043400020F00702F2E80201914605E080B2002168
:10435000042A01D1C0B200214FF00008220723D562
:10436000BCF1700F28D0009B83F0100353EA0B03BD
:1043700009D150EA010206D030228DF804208DF8D0
:1043800005C002229046009B83F0080353EA0B030A
:104390000AD150EA010201D1620705D530228DF819
:1043A00004204FF001087F1EBCF1580F09D02FA246
:1043B0000C920CAA029211E040228DF804200122F6
:1043C000E0E72FA2F4E75B46009AFFF7A3FB0C9B04
:1043D0009B5C029AA2F101020292137050EA010260
:1043E000F1D1029804A9A1EB000000F1200B6007B5
:1043F00002D524F4803400E001275F4502DDA7EBFD
:104400000B0000E0002000EB0B01009003984144FA
:10441000A0EB01000390E00306D453462146179A0F
:10442000039800F0B6F90544002706E001A85246BB
:10443000C05D179990476D1C7F1C4745F6DBE00374
:104440000CD553462146179A039800F0A2F905446B
:1044500004E030205246179990476D1C0099481E81
:1044600000900029F5DC1EE00928010030313233CC
:1044700034353637383961626364656600000000A0
:10448000303132333435363738394142434445468A
:10449000000000000298029952460078491C0291DF
:1044A000179990476D1CBBF10001ABF1010BF1DCDA
:1044B00050E100F05BF9054406F101063078002870
:1044C0007FF4DAAD19B02846BDE8F08F600700D45C
:1044D000062709F1070020F00701F1E802208946CC
:1044E00000F00043190001D09DA109E0210501D58C
:1044F0009CA105E0E10701D09BA101E0AFF284019E
:1045000020F000431391BCF1650F11D009DCBCF120
:10451000450F0DD0BCF1460F20D0BCF1470F3ED166
:104520003EE0BCF1660F19D0BCF1670F7CD137E0DB
:104530000021112F01DB112000E0781CCDE90001E2
:1045400004A90CA8FFF7E6FCDDE90D010C9A4FF079
:10455000000B07F10108109200914CE04FF0004071
:104560000097CDE9018004A90CA8FFF7D3FCDDE991
:104570000E20DDE90C314FF0000B904610930092B5
:1045800018B907F1010001EB0008B7EB080003D4EC
:10459000C0F1FF3B07F10108A8EB0700019043E0E1
:1045A000012F00DA01270021112F01DD112000E089
:1045B0003846CDE9000104A90CA8FFF7ABFCDDE902
:1045C0000D010C9A00914FF0000BB8461092210794
:1045D0000CD40099B94200DA8846B8F1010F05DD24
:1045E000109AA8F10101515C302908D0B84202DAD2
:1045F00010F1040F06DA0121CDE9011014E0A8F151
:104600000101E9E7002803DC8344A8EB000102E094
:10461000411C414500DD8846A0EB0B0000F1010084
:1046200001904FF000400290200705D401984045CA
:1046300002DB4FF0FF30019000208DF84B00029814
:104640000DF14B07B0F1004F26D002200C902B202B
:104650000D90029800280CDA404202902D200D9017
:1046600007E00A210298FFF73FFA3031029007F87D
:10467000011D0C99481E0C900029F2DC02980028BC
:10468000EFD1A7F101010D980870307800F02000FB
:1046900040F0450007F8020D11A8A0EB070000F15B
:1046A000070002901398007800B1012000EB080188
:1046B000019801EBE071029801440398A0EB01001E
:1046C000A0F101000390E00306D453462146179A57
:1046D000039800F05EF805441398007820B1524624
:1046E0001799904705F10105E00322D5534621466D
:1046F000179A039800F04DF805441AE0BBF1000F3B
:1047000007DB0098584504DD1098179910F80B0046
:1047100001E0179930205246904701986D1C401EC9
:104720000BF1010B019004D12E20524617999047AE
:104730006D1CB8F10001A8F10108DFDC05E017F8F5
:10474000010B5246179990476D1C0299481E029022
:104750000029F4DC53462146179A0398A9E6000085
:104760002D0000002B000000200000002DE9F0418A
:104770000446002517461E46880405D406E039463F
:104780002020B04705F10105641EF8D52846BDE894
:10479000F0812DE9F0410446002590461E46C803ED
:1047A00001D5302700E02027880405D506E04146E2
:1047B0003846B04705F10105641EF8D52846BDE826
:1047C000F08100002DE9F04D0546DFF8408221F030
:1047D00000408F4F82B00C46404525DBA0EB08011E
:1047E00029430CD08B49884201DC11D185B102B03C
:1047F00028462146BDE8F04D0122FFF751BA002CB2
:10480000C7BF002001468448394602B0BDE8F08D9C
:104810000120FFF779FB02B00022BDE8F04D1346FE
:1048200010461146FFF78DB87C49884244DA7C492E
:104830008142A1BF78487B4902B0BDE8F08D2A468D
:10484000234610461946FFF70CF883460246764881
:104850000E460B4606217844FFF7E8FA5A463346DF
:10486000FEF7FFFF074671488A465A463346042141
:104870007844FFF7DBFA5A463346FEF7F2FF002290
:104880004346FEF748FF02460B4638465146FFF7BF
:1048900058F82A462346FEF7E4FF654A654BFEF7C3
:1048A000DDFF2A462346FEF7D9FF02B05A4ABDE88B
:1048B000F04D5C4BFEF7D2BF002C4FF000024BDAFC
:1048C0004646434628462146FEF725FF4FF0FF3275
:1048D000FFF7E6F90446024657480D460B46062107
:1048E0007844FFF7A3FA22462B46FEF7BAFF80462C
:1048F00052488A4622462B4604217844FFF796FA0E
:1049000022462B46FEF7ADFF00223346FEF703FF9B
:1049100006468B462046294600F0A8FB04460D4675
:1049200032465B4640465146FFF70BF822462B467F
:10493000FEF797FF3E4A3F4BFEF78DFF22462B4680
:10494000FEF7E9FE0122FFF7ABF902B03B46BDE8F6
:10495000F04D314AFEF782BF2C4B28462146FEF728
:104960007DFF4FF0FF32FFF79BF905460E4600F042
:104970007DFB00270C4680463A460B46FEF7CBFEF1
:1049800082468B463A46234610461946FEF769FF93
:104990002A463346FEF762FF52465B46FEF7D1FFDA
:1049A000824627488B462A46334606217844FFF73D
:1049B0003DFA2A463346FEF754FFCDE9000121486F
:1049C0002A46334604217844FFF730FA2A46334614
:1049D000FEF747FF00220D4BFEF79DFE02460B46F9
:1049E000DDE90001FEF7ADFF42462346FEF739FF41
:1049F00052465B46FEF78FFE3A462346FEF78BFE95
:104A000002B00122BDE8F04DFFF74AB90000F03FC7
:104A1000FB2109400000F07F182D44540000E03FC6
:104A20000000603CFB21F93F5E08000074080000B4
:104A3000075C143326A6913CD4070000EA07000067
:104A4000080700001E0700002DE9F04D914F21F0EE
:104A5000004A86B005460C46BA452FDBAAEB070094
:104A600028430BD08C48824501DC1BD1D5B106B060
:104A70002846BDE8F04D0122FFF712B9874A884B5E
:104A80002846FEF7EEFE07460E46864A864B284627
:104A90002146FEF7E6FE06B03A463346BDE8F04D45
:104AA000FEF739BE0120FFF72FFA06B00022BDE85D
:104AB000F04D134610461146FEF743BF7B48824532
:104AC00043DABAF1795F0BDA2846FFF79BF904283D
:104AD00008BFFFF701FA284606B02146BDE8F08D71
:104AE0002A460B4610462146FEF7BBFE8346024689
:104AF0006F480E460B4606217844FFF797F95A4651
:104B00003346FEF7AEFE80466A488A465A4633462A
:104B100004217844FFF78AF95A463346FEF7A1FE8E
:104B200000223B46FEF7F7FD02460B464046514643
:104B3000FEF707FF2A462346FEF793FE06B02A46F5
:104B40002346BDE8F04DFEF7E6BD284624F00041BF
:104B500000223D463B46FEF781FE4FF0FF32FFF755
:104B60009FF80646024654480F460B4606217844F5
:104B7000FFF75CF932463B46FEF773FECDE90001D4
:104B80004E4832463B4604217844FFF74FF93246FF
:104B90003B46FEF766FE00222B46FEF7BCFD834631
:104BA00002913046394600F061FA804644480D468D
:104BB000504517DCDDE900015A46029BFEF7C1FEB5
:104BC00042462B46FEF74DFE42462B46FEF7A3FD1E
:104BD0000122FFF765F8314A314BFEF73CFE314ABE
:104BE000314B4DE04FF0000A0B46524640462946F5
:104BF000FEF791FDCDE9031052462B4610461946AB
:104C0000FEF72FFE32463B46FEF728FEDDE9033273
:104C1000FEF797FE06460F46DDE900015A46029B65
:104C2000FEF78FFE83460091012230463946FFF79A
:104C300037F81A4A1A4BFEF711FE06460F460122B4
:104C400040462946FFF72CF85A46009BFEF709FE1E
:104C500032463B46FEF7FFFD07460E460122504610
:104C60002946FFF71DF80F4DDFF858802A464346C6
:104C7000FEF7F4FD3A463346FEF7F0FD2A4643467A
:104C8000FEF7ECFD002CD8BF81F0004106B0BDE876
:104C9000F08D00000000F03F0000F07F075C14334F
:104CA00026A6913C182D4454FB21F93F0000E03F1B
:104CB0000C0600002206000096050000AC0500006E
:104CC0003333EF3FFB21E93F2DE9F84F04460D4612
:104CD00021F0004000917449884212DB73498842F8
:104CE00001DC07D134B120462946BDE8F84F012246
:104CF000FEF7D6BF6E48002DCCBF6E496E49BDE8A9
:104D0000F88F6E49884211DA6D498842A8BF4FF08A
:104D1000FF366DDA20462946FFF774F8042808BFED
:104D2000FFF7DAF820462946BDE8F88F6549DFF835
:104D300098A125F00045884232DA6449884219DAA0
:104D4000002632464FF0804320462946FEF7E3FC1A
:104D500007468846012220462946FEF7A1FF002289
:104D60005346FEF778FD3A464346FEF7EAFD044611
:104D70000D463DE001260022534620462946FEF717
:104D8000CAFC074688460022534620462946FEF7BD
:104D900062FD43463A46FEF7D4FD04460D4627E041
:104DA0004B4988421BDADFF82C8102260022434659
:104DB00020462946FEF755FD00225346FEF7ABFC80
:104DC00082460F460022434620462946FEF743FD11
:104DD00052463B46FEF7B5FD04460D4608E0032665
:104DE00022462B4600203C49FEF7ABFD04460D460B
:104DF00022462B4610461946FEF733FD8B46824667
:104E000002460B46FEF72DFD07460246334888460C
:104E10000B4606217844FFF709F852465B46FEF739
:104E200020FD82462E488B463A464346052178446B
:104E3000FEF7FCFF3A464346FEF713FD02460B46DB
:104E4000002E504659460CDAFEF765FC22462B46EA
:104E5000FEF707FD01B022462B46BDE8F04FFEF7F6
:104E6000FDBCFEF758FC22462B46FEF7FAFC1D4A15
:104E70007A4402EBC603D3E90023FEF7ECFC22469A
:104E80002B46FEF7E8FC184A7A4402EBC603D3E946
:104E90000023FEF7E3FC009A002AB4BF81F0004132
:104EA000BDE8F88FBDE8F88F000010440000F07FE7
:104EB000182D4454FB21F93FFB21F9BF0000DC3FD2
:104EC0000000203E0000F33F0000F03F0000E63FFE
:104ED000008003400000F83F0000F0BFA80300007E
:104EE0006603000004030000CC0200002DE9F04D31
:104EF0009446CCF1000423F000464CEA0404524FDF
:104F000046EAD47498468A4621F00042BC4206D84C
:104F1000454240EA050442EAD474BC4204D9BDE8E3
:104F2000F04D6246FEF7F7BBA8F14055A5F17F654D
:104F300055EA0C040BD0022404EAA874434DDFF8B0
:104F400010E144EADA7452EA000B04D00CE0BDE848
:104F5000F04DFFF7B9BE002C14BF012CBDE8F08D59
:104F6000022C30D0032C32D056EA0C0B0AD0BE42B1
:104F700020D1BA4209D126F0804622F08042334641
:104F8000114617E000291ADB25E0DFF8C8B0FB4422
:104F9000002C04BFDBE90001BDE8F08D012C02BF4D
:104FA000DBE9000181F00041BDE8F08D022C0AD060
:104FB000032C0CD0BA4212D1BAF1000F0BDA2348FD
:104FC0002549BDE8F08D28462449BDE8F08D2846E6
:104FD0007146BDE8F08D1D482149BDE8F08D921B5A
:104FE00012153C2AC4BF19481D490EDCB8F1000F48
:104FF000BEBF12F13C0F0020014606DB6246FEF701
:10500000A0FC21F00041FFF75FFE002C08BFBDE8C7
:10501000F08D012C04BF81F00041BDE8F08D114AF4
:10502000114B022C07D0FEF716FC2A46BDE8F04DC6
:105030000A4BFEF710BCFEF70EFC2A46BDE8F04D09
:10504000064BFEF70BBC00000000F07F182D445407
:10505000FB2109C05E020000FB21F9BFFB210940D2
:10506000FB21F93F075C143326A6A13C2DE9F04152
:1050700006460F46FEF72BFE0D46040018BF012022
:10508000284320F00040C0F17F6010F1E0400FD5D0
:10509000002E14BF01200020384320F00040C0F152
:1050A0007F6000F1E0400028A4BF0120FEF72CFF44
:1050B00020462946BDE8F081555555555555C53F03
:1050C0007D6FEB0312D6D4BF5544880E55C1C93F3E
:1050D0003B8F68B52882A4BF88B20175E0EF493FD5
:1050E00009F7FD0DE13D023F4B2D8A1C273A03C015
:1050F000C88A599CE52A004059018D1B6C06E6BF01
:1051000082922EB1C5B8B33F555555555555C53F3B
:105110007D6FEB0312D6D4BF5544880E55C1C93FED
:105120003B8F68B52882A4BF88B20175E0EF493F84
:1051300009F7FD0DE13D023F4B2D8A1C273A03C0C4
:10514000C88A599CE52A004059018D1B6C06E6BFB0
:1051500082922EB1C5B8B33F4FBB610567ACDD3F4E
:10516000182D4454FB21E93F9BF681D20B73EF3F8E
:10517000182D4454FB21F93FE2652F227F2B7A3C06
:10518000075C143326A6813CBDCBF07A8807703CBF
:10519000075C143326A6913CC4EB98999999C9BF32
:1051A000711623FEC671BCBF6D9A74AFF2B0B3BF67
:1051B0009AFDDE522DDEADBF2F6C6A2C44B4A2BF27
:1051C0000D5555555555D53FFF8300922449C23F93
:1051D0006E204CC5CD45B73F513DD0A0660DB13FC7
:1051E000EB0D76244B7BA93F11DA22E33AAD903FD9
:1051F000000000000000000018520008000000201D
:10520000EC000000E83E000804530008EC00002019
:1052100074040000F83E00080000803F0000000019
:10522000000000000000803F6F12833A0AD7A33BC2
:105230000000003F0000803F0000803F00000000B1
:10524000000000000000000000000000000000005E
:1052500000000000CDCCCC3D0AD7233C3B3D3F4372
:1052600045470000000000000000000000000000B2
:10527000000000000000000000000000000000002E
:10528000000000000000000000000000000000001E
:10529000000000000000000000000000000000000E
:1052A00000000000000000000000000000000000FE
:1052B00000000000000000000000000000000000EE
:1052C00000000000000000000000000000000000DE
:1052D00000000000000000000102030401020304BA
:1052E000060708090204060800A24A04000000009C
:1052F0000000000001020304060708090000000086
:0453000000000000A9
:0400000508000131BD
:00000001FF
