:020000040800F2
:10000000A80400202D1000087D0B00087F0B0008BD
:10001000830B0008870B00088B0B00080000000012
:100020000000000000000000000000008F0B00082E
:10003000910B000800000000930B0008950B0008CE
:100040004710000847100008471000084710000834
:100050004710000847100008471000084710000824
:100060004710000847100008471000084710000814
:100070004710000847100008471000084710000804
:1000800047100008471000084710000847100008F4
:1000900047100008471000084710000847100008E4
:1000A00047100008471000084710000847100008D4
:1000B00047100008471000084710000847100008C4
:1000C00047100008471000084710000847100008B4
:1000D00047100008471000084710000847100008A4
:1000E0004710000847100008471000084710000894
:1000F0004710000847100008471000084710000884
:100100004710000847100008471000084710000873
:100110004710000847100008471000084710000863
:100120004710000847100008471000084710000853
:10013000DFF80CD002F006FD004800470D0400086F
:10014000A80400202DE9F05F06460C46FE48016831
:10015000204602F02FF98346294602F0D3F8804664
:10016000FA4801684FF07E5002F01EF9824641467F
:1001700002F020F90746F5480168304602F01AF906
:100180008146394602F0BEF805462846BDE8F09F94
:100190002DE9F05FEE4A9168106802F041F983465C
:1001A00002F00CFB804603F01FFB06464FF0663260
:1001B000E84B02F01BFA044602F016FB8246E648C2
:1001C00001685046FFF7BEFFE4490860BDE8F09FB4
:1001D0002DE9F05FDE4A9168506802F021F983460C
:1001E00002F0ECFA804603F0FFFA06464FF0663262
:1001F000D84B02F0FBF9044602F0F6FA8246D648E4
:1002000041685046FFF79EFFD5490860BDE8F09F62
:100210002DE9F84F4FF0000850E0D24911F80800DE
:1002200000F0EAFED04921F81800D04911F8080082
:1002300000F0E2FECE4921F8180031F9180002F072
:10024000B4FA009002F0BAFA81460022C94B02F0DB
:10025000CDF906460022C84B02F038FA044602F0F7
:10026000C3FA8346C54850F82810584602F09CF857
:10027000B94941F82800BC4931F9180002F095FA53
:10028000009002F09BFA06460022BD4B02F0AEF948
:1002900004460022B84B02F019FA814602F0A4FA93
:1002A0008346B84850F82810584602F07DF8A8490F
:1002B00041F8280008F1010000F0FF08B8F1030F31
:1002C000ABDBBDE8F88F2DE9F04F8DB04FF00000AB
:1002D0000A900B900C9007900890099006460AE04F
:1002E0004FF000000AA941F8260007A941F82600AE
:1002F00006F10100C6B2032EF2DB4FF0000755E015
:100300004FF000064DE09749885D00F075FE05A9A5
:1003100021F816009549885D00F06EFE03A921F8CA
:10032000160031F9160002F040FA019002F046FA88
:10033000804600228F4B02F059F9044600228E4B72
:1003400002F0C4F9824602F04FFA029007A850F872
:100350002610029801F0D6FF07A941F8260005A94A
:1003600031F9160002F021FA019002F027FA044652
:100370000022834B02F03AF9804600227E4B02F0C5
:10038000A5F9824602F030FA02900AA850F8261029
:10039000029801F0B7FF0AA941F8260006F1010012
:1003A000C6B2032EAFDB07F10100C7B20A2FA7DBED
:1003B0004FF07E500C904FF0000622E00AA951F851
:1003C000260002F0FBF9044600226F4B02F07EF992
:1003D000804602F009FA6B4941F8260007A951F856
:1003E000260002F0EBF904460022674B02F06EF99A
:1003F000804602F0F9F9614941F8260006F1010052
:10040000C6B2032EDADB0DB0BDE8F08F1FB54FF496
:10041000E13000F0C1FB00F03AFD00F0D7FD2CE028
:1004200002215A4800F010FF20B159A002F0ACFBA5
:10043000FFF749FFFFF7ECFEFFF7CAFEFFF7A8FE44
:100440005848006802F0BAF904460D46444800686E
:1004500002F0B4F906460F464048006802F0AEF9D3
:10046000804642460B4650A0CDE90067CDE90245E3
:1004700002F08AFB0A2000F0B4FCD1E70FB595B07A
:100480001B99084601F096FF08901A99084601F05A
:1004900091FF06901899084601F08CFF0590069987
:1004A00001F030FF0790089901F02CFF099002F04D
:1004B00085F9CDE90A0103F069FBCDE90C0102F0F1
:1004C00093F914901499189801F0AAFF18901499B0
:1004D0001A9801F0A5FF1A9014991B9801F0A0FF3B
:1004E0001B90344801683448006801F063FF0C90A9
:1004F000324801683248006801F05CFF0B900C99AB
:1005000001F052FF4FF080410D9001F053FF139026
:100510002A4801682748006801F04CFF0C902848E1
:1005200001682548006801F045FF0B900C9901F027
:10053000E9FE4FF080410D9001F03CFF12901F4802
:10054000016800683EE00000200000201C00002040
:100550009000002066A64C409C000020380000203F
:1005600034000020240000203C0000202700002050
:100570004200002000407F400000E0408400002056
:1005800000001040780000200000244000080140D6
:10059000D0A3D7BC20BFAACABC202E2E2E2E0D0A57
:1005A000000000003000002025662025662025661A
:1005B0000A00000008000020000000200C000020BD
:1005C0000400002001F0F6FE0D90FE48016800686E
:1005D00001F0F0FE0B90FC480168006801F0EAFEB3
:1005E0000990FA480168006801F0E4FE0890099952
:1005F00001F0DAFE0A900B9901F0D6FE0C900D99ED
:1006000001F080FE119012991B9801F0D3FE0D901D
:1006100011991A9801F0CEFE0C900D9901F0C4FECC
:1006200010901199189801F0C5FE0D9013991B9820
:1006300001F0C0FE0C900D9901F0B6FE0F901399D9
:100640001A9801F0B7FE0D901299189801F0B2FEB9
:100650000C900D9901F0A8FE0E90109802F0AEF8E3
:10066000DB4ADC4BCDE9060101F0C0FFCDE90A0110
:10067000D948006802F0A2F8CDE90801DDE90A23B3
:1006800001F00EFFCDE90C0102F0AEF8D24908608E
:100690000F9802F093F8CE4ACE4BCDE9060101F057
:1006A000A5FFCDE90A01CD48006802F087F8CDE941
:1006B0000801DDE90A2301F0F3FECDE90C0102F0A7
:1006C00093F8C64908600E9802F078F8C04AC14B0A
:1006D000CDE9060101F08AFFCDE90A01C0480068B2
:1006E00002F06CF8CDE90801DDE90A2301F0D8FE3B
:1006F000CDE90C0102F078F8B9490860B648006805
:1007000002F05CF8CDE90A01109802F057F80022D7
:10071000B44BCDE9020101F069FFCDE9060115985E
:1007200002F04CF8CDE90401DDE9062301F0B8FE42
:10073000CDE90801DDE90A2301F0B2FECDE90C01A3
:1007400002F052F81590A548006802F037F8CDE99C
:100750000A010F9802F032F80022A24BCDE9020103
:1007600001F044FFCDE90601169802F027F8CDE923
:100770000401DDE9062301F093FECDE90801DDE97E
:100780000A2301F08DFECDE90C0102F02DF8169040
:100790009348006802F012F8CDE90A010E9802F0C1
:1007A0000DF800228F4BCDE9020101F01FFFCDE9CA
:1007B0000601179802F002F8CDE90401DDE90623ED
:1007C00001F06EFECDE90801DDE90A2301F068FEC3
:1007D000CDE90C0102F008F81790834817990068DA
:1007E00001F0E8FD049077481699006801F0E2FDF9
:1007F00002907548006880F000400090159901F063
:10080000D9FD0190029901F0CFFD0390049901F008
:10081000CBFD059001F0D2FF6D4A744BCDE9060186
:1008200001F0E4FECDE90A016848006801F0C6FF66
:10083000CDE90801DDE90A2301F032FECDE90C0122
:1008400001F0D2FF6149086067481699006801F01D
:10085000B1FD04905B481799006801F0ABFD029070
:100860005A480168159801F0A5FD0190029901F020
:1008700049FD0390049901F097FD059001F09EFF5A
:10088000534A5A4BCDE9060101F0B0FECDE90A0109
:100890004D48006801F092FFCDE90801DDE90A2327
:1008A00001F0FEFDCDE90C0101F09EFF4649086014
:1008B0004D480168159801F07DFD04904248179954
:1008C000006801F077FD029040481699006801F039
:1008D00071FD0190029901F067FD0390049901F008
:1008E00011FD059001F06AFF394A404BCDE9060140
:1008F00001F07CFECDE90A013248006801F05EFF9C
:10090000CDE90801DDE90A2301F0CAFDCDE90C01BA
:1009100001F06AFF2B49086008460168159801F04C
:1009200049FD049028481699006801F043FD0290A3
:1009300026481799006801F03DFD0190029901F0E9
:10094000E1FC0390049901F02FFD059001F036FFC2
:100950001F4A264BCDE9060101F048FECDE90A0108
:100960002148006801F02AFFCDE90801DDE90A23EA
:1009700001F096FDCDE90C0101F036FF1A4908603F
:1009800008460168006801F015FD08900D480168EF
:10099000006801F00FFD06900B480168006801F047
:1009A00009FD049009480168006801F003FD039007
:1009B000049901F0A7FC0590069901F0A3FC0790AB
:1009C000089915E008000020040000200000002025
:1009D000FCA9F1D24D62603F1000002014000020FD
:1009E00018000020000059400C0000204D62503FCC
:1009F00001F088FC099001F0E1FECDE90A0103F065
:100A0000C5F8CDE90C0101F0EFFE1490544814999B
:100A1000006801F005FD52490860524814990068C9
:100A200001F0FEFC4F4908604F481499006801F03E
:100A3000F7FC4D4908604D481499006801F0F0FC3E
:100A40004A490860464801684FF0804001F0B2FC16
:100A5000049045480168049801F0ACFC06904148B8
:100A600001684FF0404001F0A5FC04903F48016848
:100A7000049801F09FFC0590069901F043FC079053
:100A800001F09CFECDE9080102F06EFD4FF06632E8
:100A9000374BCDE90A0101F0A9FDCDE90C0101F0C8
:100AA000A3FE34490860304801684FF0804001F0EF
:100AB00081FC01902C480168019801F07BFC0390B7
:100AC000284801684FF0404001F074FC019025482F
:100AD0000168019801F06EFC0290039901F064FC3A
:100AE0004FF07E51049001F00DFC059001F066FE80
:100AF000CDE908011A4801684FF0804001F05AFC26
:100B0000029018480168029801F054FC04901648BD
:100B100001684FF0804001F04DFC029013480168DD
:100B2000029801F047FC0390049901F0EBFB05905B
:100B300001F044FECDE90601DDE9082302F066FF7D
:100B40004FF066320A4BCDE90A0101F04FFDCDE9C5
:100B50000C0101F049FE0849086019B000BD000011
:100B60000000002004000020080000200C000020ED
:100B700066A64C403400002038000020704700BFBB
:100B8000FEE700BFFEE700BFFEE700BFFEE77047DD
:100B9000704770477047000010B586B004464FF0AC
:100BA000010144F2040000F0F3FF4FF40070ADF8CF
:100BB00014004FF018008DF817004FF003008DF867
:100BC000160005A97D4800F0A3FA4FF48060ADF847
:100BD00014004FF004008DF8170005A9774800F0C5
:100BE00097FA01944FF00000ADF80800ADF80A0044
:100BF000ADF80C00ADF810004FF00C00ADF80E0091
:100C000001A96F4801F07DF801216D4801F023F939
:100C100006B010BD70B504460D46E1B2684801F05B
:100C20009DF900BF6648008810F0800FFAD020467A
:100C300070BDF0B503460D4616464FF00007294635
:100C40000A2E03D0384608702846F0BD43B94FF04D
:100C5000300001F8010B4FF0000008702846F4E75F
:100C6000002B05DA4FF02D0001F8010BC3F1000352
:100C700042F210720FE093FBF2F404B93FB104F1B9
:100C8000300001F8010B04FB12334FF001074FF065
:100C90000A0092FBF0F2002AEDDC4FF00000087031
:100CA0002846D2E70FB470B586B006460CA801906E
:100CB0007BE00B9800785C281FD10B98401C0B90B0
:100CC00000786E280AD0722811D10D21304601F02B
:100CD00045F90B9800F101000B900DE00A21304618
:100CE00001F03CF90B9800F101000B9004E00B9827
:100CF00000F101000B9000BF50E00B980078252810
:100D000045D10B98401C0B90007864281AD07328AA
:100D100037D1019810C801900CE02178304601F0DD
:100D20001DF900BF4021304601F08EF90028F9D0AE
:100D300004F1010420780028EFD10B9800F10100A4
:100D40000B9023E0019820C801900A2202A92846AE
:100D5000FFF76FFF02AC0CE02178304601F0FEF89F
:100D600000BF4021304601F06FF90028F9D004F1AE
:100D7000010420780028EFD10B9800F101000B90BE
:100D800004E00B9800F101000B9000BF06E00B9807
:100D900010F8011B0B90304601F0E0F800BF402135
:100DA000304601F051F90028F9D00B98007800285E
:100DB0007FF47FAF06B070BC5DF814FB0008014003
:100DC00000380140014607E04FF0000002E000F16A
:100DD0000102D0B20A28FADB0A00A1F10101F3D125
:100DE000704710B5044603E04FF47A70FFF7EAFF4E
:100DF0002000A4F10104F7D110BD000008B50121C5
:100E0000042000F0C5FE4FF00300ADF800004FF0E5
:100E100028008DF8030069467F4800F079F908BD85
:100E200008B50121082000F0B3FE0121480500F0BB
:100E3000BEFE4FF0C000ADF800004FF003008DF88B
:100E400002004FF01C008DF803006946734800F063
:100E50005FF908BD1FB54FF00000ADF804004FF476
:100E60008060ADF80A004FF48040ADF80C004CF201
:100E70005030009069466A4800F0D9FA012168486C
:100E800000F063FB0121664800F0A0FB1FBD10B518
:100E9000FFF7C6FFFFF7DEFFFFF7B0FF10BD70B52D
:100EA00004460D464FF001015D4800F075FB00BFA0
:100EB0005C495B4800F065FC0028F9D00022D02195
:100EC000574800F0CDFB00BF5749554800F059FC8A
:100ED0000028F9D02146524800F0BCFB00BF52491F
:100EE000891C4F4800F04DFC0028F8D029464C489A
:100EF00000F0B0FB00BF4C49891C494800F041FCA0
:100F00000028F8D00121464800F053FB70BD70B5B1
:100F1000044600BF4FF40031414800F05AFC00285D
:100F2000F8D101213E4800F037FB00BF3D493C4865
:100F300000F027FC0028F9D00022D021384800F02A
:100F40008FFB00BF3849364800F01BFC0028F9D061
:100F50000121334800F0F9FA2146314800F07AFBCC
:100F600000BF3149891C2E4800F00BFC0028F8D046
:100F700001212B4800F010FB00BF2A49284800F04F
:100F800000FC0028F9D00122D021254800F068FBA0
:100F900000BF2449491C224800F0F3FB0028F8D088
:100FA00000211F4800F012FB01211D4800F001FB49
:100FB00000BF1C493F311A4800F0E3FB0028F8D07D
:100FC000174800F049FB0546284670BD10B50021C2
:100FD0006B20FFF764FF07211920FFF760FF062150
:100FE0001A20FFF75CFF08211B20FFF758FF08219C
:100FF0001C20FFF754FF10BD70B504462046FFF7D4
:1010000086FF054604F10100C0B2FFF780FF0646E7
:1010100006EB052000B270BD00080140000C014045
:10102000005400400100030082000700064880478A
:1010300006480047FEE7FEE7FEE7FEE7FEE7FEE7BD
:10104000FEE7FEE7FEE7FEE7F521000831010008B4
:1010500010B50446DE48844208D10121042000F086
:10106000B5FD0021042000F0B1FD46E0D9488442DE
:1010700008D10121082000F0A9FD0021082000F07E
:10108000A5FD3AE0D448844208D10121102000F0A7
:101090009DFD0021102000F099FD2EE0CF488442F4
:1010A00008D10121202000F091FD0021202000F036
:1010B0008DFD22E0CA48844208D10121402000F081
:1010C00085FD0021402000F081FD16E0C5488442E6
:1010D00008D10121802000F079FD0021802000F05E
:1010E00075FD0AE0C048844207D10121801500F057
:1010F0006DFD0021A01500F069FD10BD10B50121A6
:10110000084600F063FD0021012000F05FFD10BDE6
:101110002DE9F04102464FF000052E4628460346D1
:101120000446074691F803C00CF00F0591F803C080
:101130001CF0100F03D091F802C04CEA0505B1F87D
:1011400000C01CF0FF0F35D014684FF000002EE0F7
:101150004FF0010C0CFA00F3B1F800C00CEA0306E2
:101160009E4222D14FEA80034FF00F0C0CFA03F796
:1011700024EA070405FA03FC4CEA040491F803C0CE
:10118000BCF1280F06D14FF0010C0CFA00FCC2F89C
:1011900014C00AE091F803C0BCF1480F05D14FF02C
:1011A000010C0CFA00FCC2F810C000F10100082884
:1011B000CED31460B1F800C0BCF1FF0F38DD546825
:1011C0004FF0000031E000F1080C4FF0010808FA80
:1011D0000CF3B1F800C00CEA03069E4223D14FEA9B
:1011E00080034FF00F0C0CFA03F724EA070405FA0A
:1011F00003FC4CEA040491F803C0BCF1280F05D1AC
:1012000000F1080C08FA0CF8C2F8148091F803C039
:10121000BCF1480F07D100F1080C4FF0010808FAA3
:101220000CF8C2F8108000F101000828CBD35460FC
:10123000BDE8F0814FF6FF7101804FF0020181702F
:101240004FF00401C170704702464FF000009368F0
:101250000B4202D04FF0010001E04FF00000704758
:101260000146886880B2704702464FF00000D3689C
:101270000B4202D04FF0010001E04FF00000704738
:101280000146C86880B2704701617047416170478C
:101290000AB1016100E041617047C16070474FF4DD
:1012A000803242EA010282618161826182698269DF
:1012B000704702464FF000004C4B18684FF68073A1
:1012C00000EA030040EA021040EA0100474B1860C0
:1012D00070474749C8617047F0B50A464FF00003B0
:1012E0001C4619460D4600F00046B6F1004F02D1EB
:1012F0003E4EF16901E03D4E7168C0F3034583B293
:1013000000F44016B6F5401F08D121F07061374E49
:10131000766826F07066354F7E6017E000F4801620
:10132000B6F5801F08D14FF0030606FA05F421EA4E
:10133000040141F0706109E04FEA50564FEA061689
:1013400003FA06F621EA060141F070613AB14FEA6C
:1013500050564FEA061603FA06F646EA010100F077
:101360000046B6F1004F02D1204EF16101E01F4E60
:101370007160F0BD30B54FF000024FEA81734FEA63
:1013800013744FF00F0303FA04F21A4B4FEAA1044F
:1013900053F8243023EA0203164C4FEAA10544F81F
:1013A000253023464FEAA10453F824304FEA8174D4
:1013B0004FEA147400FA04F443EA04030D4C4FEAB4
:1013C000A10544F8253030BD0B4908607047000086
:1013D00000080140000C01400010014000140140D1
:1013E00000180140001C01400020014000000140A5
:1013F0000000204208000140DC00204210B50446F5
:10140000FB48844209D10121480500F0EEFB002190
:101410004FF4001000F0E9FB08E00121880500F01E
:10142000E4FB00214FF4800000F0DFFB10BD2DE94C
:10143000F04385B004460D464FF00006B1464FF02C
:101440000407DFF8B083A6884FF6C07006EA0006EE
:10145000684600F022FBDDF80880E748B8FBF0F0B2
:101460001FFA80F946EA0906A68020884FF6FE7129
:1014700000EA010020804FF00006E0492868884219
:101480000FD828684FEA4000B8FBF0F087B2042F6D
:1014900001DA4FF0040746EA070609F1010020844B
:1014A00029E0E888A0F53F41FF3906D1286800EB24
:1014B0004000B8FBF0F087B209E0286800EBC001FB
:1014C00001EB0010B8FBF0F087B247F48047380515
:1014D000000D01D147F0010747F4004040EA06063D
:1014E0004FF4967009FB00F04FF47A7190FBF1F025
:1014F00000F101002084A683208840F001002080B4
:1015000026884FF6F53006EA0006A888698940EA81
:10151000010040EA06062680A889298940EA0100E0
:10152000208105B0BDE8F08341F2883101604FF0C1
:10153000000181804BF6FF71C1804FF000010181F5
:1015400041814FF480418181704721B1028842F08E
:101550000102028005E002884FF6FE7302EA0302F0
:101560000280704721B1828842F40062828005E0E7
:1015700082884FF2FF7302EA03028280704721B132
:10158000828842F48052828005E082884EF6FF73A2
:1015900002EA03028280704721B1028842F480721D
:1015A000028005E002884FF6FF6302EA0302028030
:1015B000704721B1028842F40072028005E002887F
:1015C0004FF6FF5302EA03020280704721B10288FE
:1015D00042F48062028005E002884FF6FF3302EA9F
:1015E0000302028070470A464FF0000181894FF6DE
:1015F000017301EA030102F0FE0343EA0101818164
:10160000704721B1828942F00102828105E082891E
:101610004FF6FE7302EA03028281704721B102880D
:1016200042F04002028005E002884FF6BF7302EAF2
:1016300003020280704710B522B1838843EA010398
:10164000838006E083886FEA0104A4B203EA0403FE
:10165000838010BD018270470146088AC0B270477E
:1016600012B141F0010103E04FF6FE7301EA0301FC
:101670000182704702464FF0000313460B4418885E
:10168000704721B1028842F40042028003E00288E0
:10169000C2F30E0202807047B1F5006F04D10288D8
:1016A00042F40062028005E002884FF2FF7302EA12
:1016B000030202807047B1F5005F04D1028842F452
:1016C0000052028005E002884DF6FF7302EA030231
:1016D0000280704721B1028842F48052028005E006
:1016E00002884EF6FF7302EA030202807047B1F5EA
:1016F000006F04D1028842F40062028005E0028893
:101700004FF2FF7302EA03020280704721B10288A0
:1017100042F02002028005E002884FF6DF7302EA01
:101720000302028070470146088B4FEA2020704771
:1017300021B1028842F01002028005E002884FF6D3
:10174000EF7302EA03020280704721B9028842F077
:101750008002028005E002884FF67F7302EA0302EE
:1017600002807047B1F5804F06D0828B4BF6FF7335
:1017700002EA0302828303E0828B42F48042828386
:10178000704770B502464FF00004254623461846C0
:10179000958A138B4FEA034345EA030626F07F44FC
:1017A00004EA01068E4202D14FF0010001E04FF041
:1017B000000070BD10B501464FF000000346024620
:1017C0008B8A0A8B4FEA024243EA020424F07F40EC
:1017D00010BD30B503464FF00000044602461A46DD
:1017E0004FEA117421F07F4154B102F114020BE071
:1017F0000054004000127A0040420F00A086010011
:101800004FEA114102F1180215680D4202D04FF063
:10181000010001E04FF0000030BD4FF0000221F068
:101820007F426FEA02038382704730B502464FF071
:1018300000000346948801F0E06504EA154321F0B6
:101840007F41948A0C4203D013B14FF0010001E0B4
:101850004FF0000030BD4FF0000221F07F426FEAF0
:101860000203838270470000F748006840F00100DF
:10187000F549086008464068F44900EA0100F24969
:10188000486008460068F24900EA0100EE49086035
:101890000846006820F4802008600846406820F46C
:1018A000FE0048604FF41F0088607047E6490968F1
:1018B00021F48031E44A11601146096821F4802145
:1018C0001160B0F5803F03D0B0F5802F0ED106E057
:1018D000DD49096841F48031DB4A116007E0DA49EB
:1018E000096841F4A021D84A116000E000BF00BFA0
:1018F000704710B501464FF00002134610464FEAFC
:101900006112012A02D1D04C236806E0022A02D1DA
:10191000CD4C236A01E0CC4C636A01F01F024FF00A
:10192000010404FA02F41C4202D04FF0010001E06D
:101930004FF0000010BD70B54FF00004254626465C
:1019400000BF3120FFF7D5FF064604F10104B4F5CE
:10195000A06F01D0002EF4D03120FFF7CAFF10B1E4
:101960004FF0010501E04FF00005284670BD01462B
:101970004FF00000B44A106820F0F80040EAC100BF
:1019800010607047B3490860704702464FF000008E
:10199000AD4B586820F47C1042EA010343EA000092
:1019A000A94B58607047AB490866704701464FF035
:1019B0000000A54A506820F0030040EA0100506092
:1019C0007047A148406800F00C00704701464FF096
:1019D00000009D4A506820F0F00040EA010050608D
:1019E000704701464FF00000974A506820F4E060CD
:1019F00040EA01005060704701464FF00000924AF3
:101A0000506820F4605040EAC1005060704731B126
:101A10008D4A527A42EA00028B4B5A7208E08A4A97
:101A2000527A6FEA0003DBB202EA0302864B5A7273
:101A3000704789490860704701464FF00000824AAC
:101A4000506820F4404040EA0100506070474FF079
:101A50000001824A11707C4A82F82010012802D0CD
:101A600004280AD104E04FF001017C4A117005E01E
:101A70004FF00501794A117000E000BF00BF7047C8
:101A80007749086070477049096A41EA00016E4A67
:101A90001162704773490860704730B54FF000011C
:101AA0000A460C460B46684D6D6805F00C0121B1E5
:101AB000042905D0082927D105E06B4D056026E0F3
:101AC000694D056023E0604D6D6805F470125E4D50
:101AD0006D6805F480344FF0020505EB924224B99D
:101AE000624D02FB05F505600DE0574D6D6815F47C
:101AF000003F04D05D4D02FB05F5056003E05A4D43
:101B000002FB05F5056002E0574D056000BF00BF10
:101B10004D4D6D6805F0F0014FEA1111544D6B5CAD
:101B2000056825FA03F54560474D6D6805F4E061E9
:101B30004FEA11214E4D6B5C456825FA03F585602F
:101B4000414D6D6805F460514FEAD121484D6B5C01
:101B5000456825FA03F5C5603B4D6D6805F44041C5
:101B60004FEA9131434D6B5CC568B5FBF3F50561F8
:101B700030BD31B1344A526942EA0002324B5A61F7
:101B800005E0314A526922EA00022F4B5A61704740
:101B900031B12D4A926942EA00022B4B9A6105E06D
:101BA000294A926922EA0002274B9A61704731B1B3
:101BB000254AD26942EA0002234BDA6105E0224A53
:101BC000D26922EA0002204BDA61704731B11E4A25
:101BD000D26842EA00021C4BDA6005E01A4AD26879
:101BE00022EA0002184BDA60704731B1164A1269D6
:101BF00042EA0002144B1A6105E0134A126922EA14
:101C00000002114B1A6170471B4908607047114967
:101C1000C86470470C49C87170470B48406A40F06F
:101C2000807009494862704701464FF00000064A3B
:101C300092680A4202D04FF0010001E04FF000002C
:101C40007047014988727047001002400000FFF899
:101C5000FFFFF6FE00004242D80042422010024040
:101C6000800442423C04424200127A0000093D00D6
:101C700048000020580000204004424210B50446AD
:101C8000F848844209D101218803FFF79FFF002112
:101C90004FF48040FFF79AFF32E0F348844209D1C5
:101CA00001214804FFF7A1FF00214FF40030FFF7A6
:101CB0009CFF25E0ED48844209D101218804FFF70B
:101CC00094FF00214FF48020FFF78FFF18E0E848D1
:101CD000844209D10121C804FFF787FF00214FF496
:101CE0000020FFF782FF0BE0E248844208D1012187
:101CF0000805FFF77AFF00214FF48010FFF775FF0A
:101D000010BD2DE9F04786B005460E464FF00004A1
:101D1000A24600BFA1462746B08900B100BF2F46AA
:101D20002C8A4CF6FF7004EA0004F08840EA0404B0
:101D30002C82AC894EF6F31004EA0004B088318995
:101D400040EA0100718940EA010040EA0404AC81E4
:101D5000AC8A4FF6FF4004EA0004B08940EA04046C
:101D6000AC8201A8FFF799FEBE48874202D1DDF898
:101D700010A001E0DDF80CA0A88910F4004F09D0F4
:101D80000AEBCA0000EB0A1031684FEA4101B0FBD0
:101D9000F1F808E00AEBCA0000EB0A1031684FEADC
:101DA0008101B0FBF1F84FF06400B8FBF0F04FEAAE
:101DB00000144FEA14104FF0640101FB1089A88948
:101DC00010F4004F0AD04FF0320000EBC900B0FB16
:101DD000F1F000F0070040EA04040BE04FF032009D
:101DE00000EB09104FF06401B0FBF1F000F00F00C0
:101DF00040EA04042C8106B0BDE8F0874FF4165188
:101E000001604FF000018180C18001814FF00C0121
:101E100041814FF000018181704710B502464FF0BB
:101E20000000108A4FF2FF0300EA03000B884C8881
:101E300043EA04038C8843EA0403CC8843EA04039E
:101E400043EA0000108210BD4FF000010180418084
:101E50008180C180704721B1828942F40052828121
:101E600005E082894DF6FF7302EA03028281704722
:101E7000F0B503464FF00004264625462046A1F55E
:101E800010676A3F00D100BF1846C1F3421401F049
:101E90001F064FF0010707FA06F5012C02D100F1E9
:101EA0000C0006E0022C02D100F1100001E000F16C
:101EB000140022B1076847EA0507076003E00768D6
:101EC00027EA05070760F0BD10B522B1838A43EA0F
:101ED0000103838206E0838A6FEA0104A4B203EA65
:101EE0000403838210BD028A4FF6F07302EA0302F4
:101EF0000282028A42EA01020282704782894FF21C
:101F0000FF7302EA03028281828942EA010282812E
:101F1000704721B1828942F00202828105E0828904
:101F20004FF6FD7302EA030282817047028A4FF680
:101F3000DF7302EA03020282028A42EA010202829B
:101F4000704721B1028A42F48042028205E0028A8F
:101F50004BF6FF7302EA030202827047C1F30802E4
:101F60008280704701468888C0F3080070478189E5
:101F700041F0010181817047028BD2B20283028B52
:101F800042EA012202837047028B02F47F420283FD
:101F9000028B42EA01020283704721B1828A42F039
:101FA0002002828205E0828A4FF6DF7302EA030292
:101FB0008282704721B1828A42F01002828205E05B
:101FC000828A4FF6EF7302EA03028282704721B1E0
:101FD000828A42F00802828205E0828A4FF6F77315
:101FE00002EA03028282704721B1828942F40042F0
:101FF000828103E08289C2F30E028281704721B19F
:10200000828A42F40062828205E0828A4FF2FF7384
:1020100002EA030282827047828A4FF6FB7302EA69
:1020200003028282828A42EA01028282704721B1DF
:10203000828A42F00202828205E0828A4FF6FD73B4
:1020400002EA03028282704702464FF00000B1F5B7
:10205000007F00D100BF13880B420DD04FF001006C
:102060000CE00000003801400044004000480040FF
:10207000004C0040005000404FF00000704701F459
:102080000072B2F5007F00D100BF6FEA010202804A
:10209000704770B502464FF0000423461D461846AF
:1020A000A1F510666A3E00D100BFC1F3421501F0F0
:1020B0001F034FF0010606FA03F3012D03D19689A1
:1020C00006EA030308E0022D03D1168A06EA030399
:1020D00002E0968A06EA03034FEA21244FF0010644
:1020E00006FA04F4168806EA04041BB114B14FF092
:1020F000010001E04FF0000070BD10B54FF000028C
:102100001346A1F510646A3C00D100BF4FEA2122BA
:102110004FF0010404FA02F4A3B26FEA030404804E
:1021200010BD00004FF0000108466D4A126842F4ED
:1021300080326B4B1A6000BF694A126802F40030AB
:1021400001F1010110B9B1F5A06FF5D1644A12682F
:1021500012F4003F02D04FF0010001E04FF0000008
:10216000012842D15F4A126842F010025D4B1A60AA
:102170001A46126822F003021A601A46126842F0E8
:1021800002021A60564A5268554B5A601A46526803
:102190005A601A46526842F480625A601A4652687F
:1021A00022F47C125A601A46526842F4E8125A60CD
:1021B0001A46126842F080721A6000BF484A1268DC
:1021C00012F0007FFAD0464A526822F00302444BD4
:1021D0005A601A46526842F002025A6000BF404AF2
:1021E000526802F00C02082AF9D1704710B5FFF7C7
:1021F00099FF10BD10B53A48006840F00100384919
:10220000086008464068384900EA010034494860DF
:1022100008460068354900EA01003149086008466F
:10222000006820F4802008600846406820F4FE0022
:1022300048604FF41F008860FFF7D8FF4FF0006040
:102240002B49086010BD10B54FF00001084602464A
:10225000234B5B6803F00C0121B1042906D0082947
:102260002CD107E0234B244C23602BE0214B224C44
:10227000236027E01A4B5B6803F47010184B5B680F
:1022800003F480324FF0020303EB90402AB91B4B5A
:1022900000FB03F3184C23600FE0114B5B6813F451
:1022A000003F05D0154B00FB03F3134C236004E003
:1022B000104B00FB03F3104C236003E00D4B0E4C5E
:1022C000236000BF00BF064B5B68C3F303130C4CD5
:1022D000E15C094B1B6823FA01F3074C236010BD36
:1022E00000100240002002400000FFF8FFFFF6FE51
:1022F00008ED00E000127A005C00002000093D00BB
:1023000060000020F0B480EA0102D20F4300B3EB7A
:10231000410F02D20346084619464B0042D0C30D76
:10232000DDB2C1F3C7542C1B202C35DAC1F31601E2
:1023300041F4000502B16D42C4F1200605FA06F130
:1023400025412844B3EBD05F23D0C2B1012CA0EBD0
:10235000C35009DCF0BC4FF0004202EAC35200F562
:102360000000DBB200F0CDBA400000F1807000EB5D
:10237000C350A0F1807040EAD170490009E04908DB
:1023800041EAC071A0EBC35000F50000400800EB2B
:10239000C350F0BC00F0ACBA5142012303EB410141
:1023A000801AF6E7F0BC704781F00041AAE780F0A0
:1023B0000040A7E780EA010210B502F000424000A9
:1023C00026D04B0023D04FEA106101EB1361C0F31C
:1023D0005600C3F3560340F4000043F40003A0FB8F
:1023E0000330A1F17F014FEA00401C0401D000F14D
:1023F000010050EA134001D44000491EC3B20C064C
:1024000004EBD010401C4008802B02D003E00020D9
:1024100010BD20F00100002900DA0020104310BD9B
:1024200080EA010202F0004330B430F0004221F0B3
:10243000004015D0A0B1C0F3C755C2F3C754C2F3D2
:102440001601C0F31600651B41F4000140F40000C2
:102450007D35814201D36D1C00E04900002D02DA78
:1024600030BC002070474FF400020024814201D3A9
:10247000091A144352084FEA4101F7D151B1814280
:1024800002D14FF0004105E002D24FF0010101E01E
:102490006FF0010104EBC55030BC184400F028BABD
:1024A0002DE9FE4F074681EA0300C00F0E4601905A
:1024B00021F0004123F00044B81AA14105D238466A
:1024C000314617461E460B46024623F00040104395
:1024D00004D13846314603B0BDE8F08F350DC5F361
:1024E0000A00C3F30A510290401A0090402868DAAB
:1024F000C3F3130040F4801B0198924620B10023DF
:10250000D2EB030A63EB0B0B00985946C0F1400273
:10251000504600F0CCF980460C4650465946009A89
:1025200000F0D4F9C0197141EF1785EA11533B430C
:1025300040D0019A52B3009A012A11DC0022801A7D
:102540004FF0004361EB055103EA05538018CDE9D4
:10255000002341F580114246234600F00CFABAE709
:102560002E050025401B61EB0601401941F5801244
:10257000001852412818A6F5001343EB020140EA67
:10258000D470294318EB0808644113E064084FEA4B
:1025900038084FF0000244EAC0744FEA0553801A2D
:1025A00061EB0301801841F5801149084FEA3000C2
:1025B000801859414246234603B0BDE8F04F00F071
:1025C000CDB90198012240000023D0EB020263EB59
:1025D000E07301984FEAE074381A66EB0401EBE708
:1025E00083F000435CE781F0004159E72DE9FE4F9D
:1025F00081EA030421F0004504F0004423F0004187
:102600004FF0000A009450EA050302D052EA010399
:1026100004D10020014603B0BDE8F08FC1F30A5396
:10262000C5F30A541C44A0FB02B3C5F3130545F4DB
:10263000801CC1F3130141F480180CFB023300FB32
:10264000083EA4F2F334810A930A41EA8C5143EA2A
:1026500088530194A1FB03474FEA9C2505FB0373B4
:102660004FEA982601FB06373D05260545EA143555
:10267000BBEB06016EEB0503850E920E45EA8C1549
:1026800042EA8812A5FB0206261E67EB00070C0D26
:1026900044EA0334A41947EB1350C1F313064FF077
:1026A000000319464FEA033343EA165343EA04038F
:1026B000019CE5FB0201A4F10C040294009C4FEA8A
:1026C0000632CDE900A400F056F9A4E72DE9F04D5B
:1026D00081EA030404F0004B21F0004714464FF058
:1026E000000A23F0004150EA070220D054EA010218
:1026F0001DD0C1F30A550246C1F31300C7F30A56B1
:10270000C7F3130340F4801143F48013A6EB0508CC
:10271000101BD64608F2FD3873EB010002D308F116
:10272000010801E092185B41B8F1000F03DA0020C4
:102730000146BDE8F08D00204FF48015064607469F
:102740000EE0B2EB040C73EB010C04D3121B064336
:1027500063EB01032F436D084FEA300092185B4191
:1027600050EA050CEDD152EA030012D082EA0400CF
:1027700083EA0105284303D100224FF0004308E01B
:10278000101B8B4102D20122002302E06FF00102F4
:1027900053101AEB060047EB085110EB0A0041EB0F
:1027A0000B01BDE8F04D00F0D9B8C10F80EAE07030
:1027B0000844CA079623002100F0A3B800F00042A5
:1027C00030F000400DD0C10D01F5607142EA0151B9
:1027D0000022C0F31600520742EAD002400711431C
:1027E000704700200146704701F0004230B421F0EC
:1027F000004150EA010306D00B0DA3F56073C1F34D
:102800001301002B02DC30BC00207047440F44EA67
:10281000C104C100A01830BC00EBC35000F068B880
:1028200030B50B46014600202022012409E021FAA0
:1028300002F59D4205D303FA02F5491B04FA02F59D
:102840002844151EA2F10102F1DC30BD2DE9F05F34
:102850000546002092469B4688460646814640240F
:102860001BE0284641464746224600F07DF9524685
:102870005B46801A994110D310461946224600F053
:1028800016F82D1A67EB01084F4622460120002159
:1028900000F00DF817EB00094E41201EA4F10104D1
:1028A000DFDC484631462A464346BDE8F09F202AF1
:1028B00004DB203A00FA02F1002070479140C2F197
:1028C000200320FA03F3194390407047202A06DBC7
:1028D000CB17203A41FA02F043EAE071704741FA1F
:1028E00002F3D040C2F120029140084319467047DC
:1028F0000029A8BF7047401C490008BF20F0010014
:10290000704710B4B0FA80FC00FA0CF050EA0104F1
:1029100004BF10BC704749B1CCF1200421FA04F483
:1029200011FA0CF118BF012121430843A3EB0C015C
:10293000CB1D0106000A002BBEBF002010BC704753
:1029400000EBC35010440029A4BF10BC7047401CCA
:10295000490008BF20F0010010BC704710B5002BE3
:1029600008DA401C41F1000192185B411A4301D181
:1029700020F0010010BD2DE9F04D92469B4611B1AB
:10298000B1FA81F202E0B0FA80F220329046FFF70D
:102990008EFF06460F4640EA0A0041EA0B01524606
:1029A0005B46084303D130463946BDE8F08D1946F1
:1029B00052EA010015D0C8F14002504600F0D4F8A8
:1029C00004460D46504659464246FFF770FF0843FD
:1029D00001D0012000E00020044345EAE0752643D1
:1029E0002F430A984FEAD625A0EB08000A304FEA99
:1029F00046534FF0000245EA47554FEAD72402D527
:102A000000200146D1E7010550196141DDE9084583
:102A100000196941BDE8F04DA0E770B521F0004311
:102A200003430CD0C1F30A540026D4EB060566EB31
:102A30000603D417AD1AA34102DB0020014670BD86
:102A4000001C41EB025170BD2DE9F04D00231A46E8
:102A50001B1A8A4103DB00200146BDE8F08DC1F35B
:102A60000A52C1F3130141F480154FF0000BD10756
:102A700002D100186D41521E0026044640F2FF119B
:102A8000304601EB620A37468046024600204FF48A
:102A9000801100F069F880197941331847EB010281
:102AA000B4EB030C75EB020C04D3E41A65EB0205DE
:102AB00006460F46241908F101006D41804634286E
:102AC000E3DDB11947EB0700091BA84103D24FF022
:102AD000FF32134601E0002213461BEB060047EBD2
:102AE0000A51BDE8F04DFFF739BFC1F30A52C1F3F7
:102AF000130140F2FF3341F480119A4202DA0020C0
:102B00000146704740F233439A42A2F2334202DC5C
:102B1000524200F029B8FFF7CABE000030B50029C4
:102B200004DB4FF00044404264EB0101002B04DB66
:102B30004FF00044524264EB0303994208BF9042B5
:102B400030BD0000064C074D06E0E06840F0010390
:102B500094E8070098471034AC42F6D3FDF7ECFA3E
:102B6000C83C0008E83C0008202A04DB203A21FA8F
:102B700002F00021704721FA02F3D040C2F1200296
:102B800091400843194670470FB4054B10B503A98F
:102B9000044A029800F03AF910BC5DF814FB0000FA
:102BA000150C000870000020490050EAC12018BF31
:102BB00004204A0D18BF40F0010040F2FF72B2EB52
:102BC000515F08BF40F00200012808BF0520704790
:102BD0002DE9F0414F1E00EBC7010446D1E9000189
:102BE00015461E4637F006020DD02A463346FFF73B
:102BF000FDFC7F1E04EBC703D3E90023FFF750FC65
:102C000037F00602F1D1022F25D0042F13D0062F62
:102C100018BFBDE8F0812A463346FFF7E7FCD4E948
:102C20000A23FFF73DFC2A463346FFF7DFFCD4E9D1
:102C30000823FFF735FC2A463346FFF7D7FCD4E9D3
:102C40000623FFF72DFC2A463346FFF7CFFCD4E9D5
:102C50000423FFF725FC2A463346FFF7C7FCD4E9D7
:102C60000223FFF71DFC2A463346FFF7BFFCD4E9D9
:102C70000023BDE8F041FFF713BC0000024A00202A
:102C80001107FFF7CABE000001FDFFFF02E008C800
:102C9000121F08C1002AFAD170477047002001E0D6
:102CA00001C1121F002AFBD17047000001490860D2
:102CB00070470000740000202DE9FF5FDDE902107D
:102CC000020DDDF838B001430FD10F9801244AA35B
:102CD000012807D000980F9AC0E90031C0E90242EC
:102CE000BDE8FF9F6FEA0B01F4E7A2F2FF3244F662
:102CF0001050424315140F9801280ED0A5EB0B007D
:102D0000401C4FF000043D4EDFF8F490B0F1000A93
:102D1000A04605DACAF1000717E0CBF10000F0E7A2
:102D2000074612E0F80707D0224633464046494698
:102D3000FFF75CFC8046894622463346104619461A
:102D4000FFF754FC04460E467F10002FEAD1DDE960
:102D50000201BAF1000F42464B4602DAFFF746FC89
:102D600001E0FFF7B3FC04460E460022254BFFF7B7
:102D7000D5FE03D84FF0FF30014607E00022224B7A
:102D800020463146FFF78CFBFFF7AFFE102409E029
:102D9000002C0ADB0A220023FFF758FD019B30328A
:102DA0001A55641E50EA0102F2D1641C019AC4F162
:102DB000110314440F9A012A07D00122084301D1BC
:102DC0005B450DDD00226D1C0DE0084303D1A3EB34
:102DD0000B056D1E09E000204FF0110B0F908AE7E4
:102DE00001DA00226D1E002A85D000980F99C0E9F3
:102DF0000231C0E9004573E73000000000002440C4
:102E00000000F03F0000F0430000E03F2DE9FF4FDD
:102E100095B006469A468946002521E2252801D02C
:102E20001799A6E00024F9492746761C4FF00108BF
:102E300003943278203A08FA02F0084202D00443A0
:102E4000761CF6E730782A2811D06FF02F02307800
:102E5000A0F13001092916D8039944F0020401EBCE
:102E6000810102EB41010844761C0390EFE759F819
:102E7000041B0391002903DA484244F400540390F0
:102E800044F00204761C30782E2816D116F8010F73
:102E900044F004042A280DD06FF02F013078A0F1FF
:102EA0003002092A09D807EB870201EB4202871892
:102EB000761CF3E759F8047B761C30786C280FD029
:102EC00006DC4C2817D068280DD06A2814D104E0FD
:102ED000742810D07A280FD10DE044F400140AE0D1
:102EE00044F4801401E044F440147178814202D12A
:102EF000761C04F58014761C96F800C0BCF1660FB1
:102F000010D01ADCBCF1580F70D00CDCBCF1000FF3
:102F10006DD0BCF1450FF3D0BCF1460FF0D0BCF141
:102F2000470F24D1A4E1BCF1630F40D0BCF1640F82
:102F300074D0BCF1650F1AD19AE1BCF1700F6ED05C
:102F40000CDCBCF1670FEDD0BCF1690F75D0BCF1A2
:102F50006E0F12D0BCF16F0F09D1B3E0BCF1730F4B
:102F60002FD0BCF1750F76D0BCF1780F74D01799C3
:102F70006046524690476D1C70E1C4F3025002282F
:102F800009D003280DD0D9F8001004280DD00D6009
:102F900009F1040962E1D9F80010EA17C1E9005209
:102FA000F6E7D9F800100D80F2E70D70F0E759F858
:102FB000041B8DF8001000208DF80100EB46012065
:102FC00003E059F804BB4FF0FF3061074FF00001F8
:102FD00002D40FE008F101018846B94211DA8045B8
:102FE000F8DB1BF808100029F4D10AE060E03BE1AF
:102FF00008F1010188468142FADB1BF8081000291C
:10300000F6D103985346A0EB080721463846179A95
:1030100000F091FA284400EB080506E00DE049E0D5
:103020001BF8010B524617999047B8F10108F7D2E7
:10303000534621463846179A0DE10A21C4F302523D
:103040004FF0000B0091022A07D059F8040BC1176A
:10305000032A0AD00BE024E025E009F1070020F064
:103060000702F2E80201914605E000B2C117042A06
:1030700001D140B2C117002906DA0A4600214042B8
:1030800061EB02012D2202E0220504D52B228DF8EE
:103090000420012203E0E20701D02022F7E7904656
:1030A00054E00A2100E010214FF0000B00910DE0E8
:1030B000102008E010204FF0000B44F00404082713
:1030C000009003E008204FF0000B0090C4F3025280
:1030D000022A05D059F8040B0021032A08D009E080
:1030E00009F1070020F00702F2E80201914605E02D
:1030F00080B20021042A01D1C0B200214FF00008A3
:10310000220723D5BCF1700F28D0009B83F0100359
:1031100053EA0B0309D150EA010206D030228DF8A0
:1031200004208DF805C002229046009B83F008031E
:1031300053EA0B030AD150EA010201D1620705D517
:1031400030228DF804204FF001087F1EBCF1580F8B
:1031500009D02FA20C920CAA029211E040228DF805
:1031600004200122E0E72FA2F4E75B46009AFFF774
:103170006DFB0C9B9B5C029AA2F101020292137000
:1031800050EA0102F1D1029804A9A1EB000000F17C
:10319000200B600702D524F4803400E001275F454E
:1031A00002DDA7EB0B0000E0002000EB0B0100901C
:1031B00003984144A0EB01000390E00306D453467A
:1031C0002146179A039800F0B6F90544002706E057
:1031D00001A85246C05D179990476D1C7F1C47455A
:1031E000F6DBE0030CD553462146179A039800F00E
:1031F000A2F9054404E030205246179990476D1C0F
:103200000099481E00900029F5DC1EE00928010005
:10321000303132333435363738396162636465664C
:10322000000000003031323334353637383941420E
:103230004344454600000000029802995246007837
:10324000491C0291179990476D1CBBF10001ABF12D
:10325000010BF1DC50E100F05BF9054406F10106D9
:10326000307800287FF4DAAD19B02846BDE8F08F39
:10327000600700D4062709F1070020F00701F1E8F4
:103280000220894600F00043190001D09DA109E009
:10329000210501D59CA105E0E10701D09BA101E03A
:1032A000AFF2840120F000431391BCF1650F11D0FF
:1032B00009DCBCF1450F0DD0BCF1460F20D0BCF1AC
:1032C000470F3ED13EE0BCF1660F19D0BCF1670F4D
:1032D0007CD137E00021112F01DB112000E0781CA8
:1032E000CDE9000104A90CA8FFF7E6FCDDE90D011A
:1032F0000C9A4FF0000B07F10108109200914CE07E
:103300004FF000400097CDE9018004A90CA8FFF719
:10331000D3FCDDE90E20DDE90C314FF0000B9046C7
:103320001093009218B907F1010001EB0008B7EB08
:10333000080003D4C0F1FF3B07F10108A8EB070028
:10334000019043E0012F00DA01270021112F01DD58
:10335000112000E03846CDE9000104A90CA8FFF7D0
:10336000ABFCDDE90D010C9A00914FF0000BB84663
:10337000109221070CD40099B94200DA8846B8F1BE
:10338000010F05DD109AA8F10101515C302908D028
:10339000B84202DA10F1040F06DA0121CDE901107A
:1033A00014E0A8F10101E9E7002803DC8344A8EB5D
:1033B000000102E0411C414500DD8846A0EB0B0006
:1033C00000F1010001904FF000400290200705D469
:1033D0000198404502DB4FF0FF30019000208DF84E
:1033E0004B0002980DF14B07B0F1004F26D00220A0
:1033F0000C902B200D90029800280CDA404202908D
:103400002D200D9007E00A210298FFF709FA3031CC
:10341000029007F8011D0C99481E0C900029F2DC5F
:1034200002980028EFD1A7F101010D9808703078BB
:1034300000F0200040F0450007F8020D11A8A0EBB5
:10344000070000F1070002901398007800B10120F6
:1034500000EB0801019801EBE07102980144039828
:10346000A0EB0100A0F101000390E00306D4534655
:103470002146179A039800F05EF8054413980078E7
:1034800020B152461799904705F10105E00322D576
:1034900053462146179A039800F04DF805441AE068
:1034A000BBF1000F07DB0098584504DD1098179911
:1034B00010F80B0001E01799302052469047019810
:1034C0006D1C401E0BF1010B019004D12E205246C1
:1034D000179990476D1CB8F10001A8F10108DFDCD5
:1034E00005E017F8010B5246179990476D1C029999
:1034F000481E02900029F4DC53462146179A03988F
:10350000A9E600002D0000002B00000020000000B4
:103510002DE9F0410446002517461E46880405D4CF
:1035200006E039462020B04705F10105641EF8D5B4
:103530002846BDE8F0812DE9F0410446002590467B
:103540001E46C80301D5302700E02027880405D592
:1035500006E041463846B04705F10105641EF8D53E
:103560002846BDE8F08100002DE9F04D914F21F093
:10357000004A86B005460C46BA452FDBAAEB070089
:1035800028430BD08C48824501DC1BD1D5B106B055
:103590002846BDE8F04D0122FFF73FBA874A884B25
:1035A0002846FFF723F807460E46864A864B2846EC
:1035B0002146FFF71BF806B03A463346BDE8F04D0A
:1035C000FEF76EBF0120FFF771FB06B00022BDE8D9
:1035D000F04D134610461146FFF778B87B488245F8
:1035E00043DABAF1795F0BDA2846FFF7DDFA0428EF
:1035F00008BFFFF743FB284606B02146BDE8F08D23
:103600002A460B4610462146FEF7F0FF8346024647
:103610006F480E460B4606217844FFF7D9FA5A4602
:103620003346FEF7E3FF80466A488A465A463346E9
:1036300004217844FFF7CCFA5A463346FEF7D6FF0A
:1036400000223B46FEF72CFF02460B464046514601
:10365000FFF73CF82A462346FEF7C8FF06B02A4685
:103660002346BDE8F04DFEF71BBF284624F000417D
:1036700000223D463B46FEF7B6FF4FF0FF32FFF714
:10368000CCF90646024654480F460B4606217844BC
:10369000FFF79EFA32463B46FEF7A8FFCDE9000150
:1036A0004E4832463B4604217844FFF791FA3246B1
:1036B0003B46FEF79BFF00222B46FEF7F1FE8346BA
:1036C00002913046394600F061FA804644480D4682
:1036D000504517DCDDE900015A46029BFEF7F6FF74
:1036E00042462B46FEF782FF42462B46FEF7D8FEA7
:1036F0000122FFF792F9314A314BFEF771FF314A4F
:10370000314B4DE04FF0000A0B46524640462946E9
:10371000FEF7C6FECDE9031052462B461046194669
:10372000FEF764FF32463B46FEF75DFFDDE90332FC
:10373000FEF7CCFF06460F46DDE900015A46029B24
:10374000FEF7C4FF83460091012230463946FFF759
:1037500064F91A4A1A4BFEF746FF06460F46012245
:1037600040462946FFF759F95A46009BFEF73EFFAF
:1037700032463B46FEF734FF07460E4601225046CE
:103780002946FFF74AF90F4DDFF858802A4643468D
:10379000FEF729FF3A463346FEF725FF2A46434601
:1037A000FEF721FF002CD8BF81F0004106B0BDE834
:1037B000F08D00000000F03F0000F07F075C143344
:1037C00026A6913C182D4454FB21F93F0000E03F10
:1037D000BC050000D2050000460500005C050000A5
:1037E0003333EF3FFB21E93F2DE9F84F04460D4607
:1037F00021F0004000917449884212DB73498842ED
:1038000001DC07D134B120462946BDE8F84F01223A
:10381000FFF703B96E48002DCCBF6E496E49BDE875
:10382000F88F6E49884211DA6D498842A8BF4FF07F
:10383000FF366DDA20462946FFF7B6F9042808BF9F
:10384000FFF71CFA20462946BDE8F88F6549DFF8E6
:1038500098A125F00045884232DA6449884219DA95
:10386000002632464FF0804320462946FEF718FED8
:1038700007468846012220462946FFF7CEF8002257
:103880005346FEF7ADFE3A464346FEF71FFF044699
:103890000D463DE001260022534620462946FEF70C
:1038A000FFFD074688460022534620462946FEF77C
:1038B00097FE43463A46FEF709FF04460D4627E0C9
:1038C0004B4988421BDADFF82C810226002243464E
:1038D00020462946FEF78AFE00225346FEF7E0FD09
:1038E00082460F460022434620462946FEF778FED0
:1038F00052463B46FEF7EAFE04460D4608E0032624
:1039000022462B4600203C49FEF7E0FE04460D46C9
:1039100022462B4610461946FEF768FE8B46824625
:1039200002460B46FEF762FE0746024633488846CB
:103930000B4606217844FFF74BF952465B46FEF7EB
:1039400055FE82462E488B463A464346052178442A
:10395000FFF73EF93A464346FEF748FE02460B465D
:10396000002E504659460CDAFEF79AFD22462B46A9
:10397000FEF73CFE01B022462B46BDE8F04FFEF7B5
:1039800032BEFEF78DFD22462B46FEF72FFE1D4A66
:103990007A4402EBC603D3E90023FEF721FE224658
:1039A0002B46FEF71DFE184A7A4402EBC603D3E904
:1039B0000023FEF718FE009A002AB4BF81F00041F0
:1039C000BDE8F88FBDE8F88F000010440000F07FDC
:1039D000182D4454FB21F93FFB21F9BF0000DC3FC7
:1039E0000000203E0000F33F0000F03F0000E63FF3
:1039F000008003400000F83F0000F0BF58030000C3
:103A000016030000B40200007C0200002DE9F04D16
:103A10009446CCF1000423F000464CEA0404524FD3
:103A200046EAD47498468A4621F00042BC4206D841
:103A3000454240EA050442EAD474BC4204D9BDE8D8
:103A4000F04D6246FEF72CBDA8F14055A5F17F650B
:103A500055EA0C040BD0022404EAA874434DDFF8A5
:103A600010E144EADA7452EA000B04D00CE0BDE83D
:103A7000F04DFFF7B9BE002C14BF012CBDE8F08D4E
:103A8000022C30D0032C32D056EA0C0B0AD0BE42A6
:103A900020D1BA4209D126F0804622F08042334636
:103AA000114617E000291ADB25E0DFF8C8B0FB4417
:103AB000002C04BFDBE90001BDE8F08D012C02BF42
:103AC000DBE9000181F00041BDE8F08D022C0AD055
:103AD000032C0CD0BA4212D1BAF1000F0BDA2348F2
:103AE0002549BDE8F08D28462449BDE8F08D2846DB
:103AF0007146BDE8F08D1D482149BDE8F08D921B4F
:103B000012153C2AC4BF19481D490EDCB8F1000F3C
:103B1000BEBF12F13C0F0020014606DB6246FEF7F5
:103B2000D5FD21F00041FFF75FFE002C08BFBDE886
:103B3000F08D012C04BF81F00041BDE8F08D114AE9
:103B4000114B022C07D0FEF74BFD2A46BDE8F04D85
:103B50000A4BFEF745BDFEF743FD2A46BDE8F04D92
:103B6000064BFEF740BD00000000F07F182D4454C6
:103B7000FB2109C00E020000FB21F9BFFB21094017
:103B8000FB21F93F075C143326A6A13C2DE9F04147
:103B900006460F46FEF758FF0D46040018BF0120E9
:103BA000284320F00040C0F17F6010F1E0400FD5C5
:103BB000002E14BF01200020384320F00040C0F147
:103BC0007F6000F1E0400028A4BF0120FFF76EF8FD
:103BD00020462946BDE8F081555555555555C53FF8
:103BE0007D6FEB0312D6D4BF5544880E55C1C93F33
:103BF0003B8F68B52882A4BF88B20175E0EF493FCA
:103C000009F7FD0DE13D023F4B2D8A1C273A03C009
:103C1000C88A599CE52A004059018D1B6C06E6BFF5
:103C200082922EB1C5B8B33F4FBB610567ACDD3F93
:103C3000182D4454FB21E93F9BF681D20B73EF3FD3
:103C4000182D4454FB21F93FE2652F227F2B7A3C4B
:103C5000075C143326A6813CBDCBF07A8807703C04
:103C6000075C143326A6913CC4EB98999999C9BF77
:103C7000711623FEC671BCBF6D9A74AFF2B0B3BFAC
:103C80009AFDDE522DDEADBF2F6C6A2C44B4A2BF6C
:103C90000D5555555555D53FFF8300922449C23FD8
:103CA0006E204CC5CD45B73F513DD0A0660DB13F0C
:103CB000EB0D76244B7BA93F11DA22E33AAD903F1E
:103CC0000000000000000000E83C000800000020A8
:103CD000780000008C2C0008603D0008780000206F
:103CE000300400009C2C00080000803F0000000011
:103CF00000000000000000000000000000000000C4
:103D000000000000CDCCCC3D0AD7233C3B3D3F43D7
:103D10004547000000000000000000000000000017
:103D20000000000000000000000000000000000093
:103D30000000000001020304010203040607080951
:103D40000204060800A24A0400000000000000006F
:103D5000010203040607080900000000000000003B
:0400000508000131BD
:00000001FF
